{
  "_format": "hh-sol-artifact-1",
  "contractName": "FunctionGuzzlerOP",
  "sourceName": "src/L5-Gas-Optimizations/FunctionGuzzlerOP.sol",
  "abi": [
    {
      "inputs": [],
      "name": "InsufficientBalance",
      "type": "error"
    },
    {
      "inputs": [],
      "name": "UserNotRegistered",
      "type": "error"
    },
    {
      "inputs": [],
      "name": "UserRegistered",
      "type": "error"
    },
    {
      "inputs": [],
      "name": "ValueExists",
      "type": "error"
    },
    {
      "anonymous": false,
      "inputs": [
        {
          "indexed": false,
          "internalType": "address",
          "name": "from",
          "type": "address"
        },
        {
          "indexed": false,
          "internalType": "address",
          "name": "to",
          "type": "address"
        },
        {
          "indexed": false,
          "internalType": "uint256",
          "name": "amount",
          "type": "uint256"
        }
      ],
      "name": "Transfer",
      "type": "event"
    },
    {
      "anonymous": false,
      "inputs": [
        {
          "indexed": false,
          "internalType": "address",
          "name": "user",
          "type": "address"
        },
        {
          "indexed": false,
          "internalType": "uint256",
          "name": "value",
          "type": "uint256"
        }
      ],
      "name": "ValueAdded",
      "type": "event"
    },
    {
      "inputs": [
        {
          "internalType": "uint256",
          "name": "newValue",
          "type": "uint256"
        }
      ],
      "name": "addValue",
      "outputs": [],
      "stateMutability": "nonpayable",
      "type": "function"
    },
    {
      "inputs": [
        {
          "internalType": "uint256",
          "name": "amount",
          "type": "uint256"
        }
      ],
      "name": "deposit",
      "outputs": [],
      "stateMutability": "nonpayable",
      "type": "function"
    },
    {
      "inputs": [
        {
          "internalType": "address",
          "name": "user",
          "type": "address"
        }
      ],
      "name": "findUser",
      "outputs": [
        {
          "internalType": "bool",
          "name": "",
          "type": "bool"
        }
      ],
      "stateMutability": "view",
      "type": "function"
    },
    {
      "inputs": [],
      "name": "getAverageValue",
      "outputs": [
        {
          "internalType": "uint256",
          "name": "",
          "type": "uint256"
        }
      ],
      "stateMutability": "view",
      "type": "function"
    },
    {
      "inputs": [
        {
          "internalType": "address",
          "name": "target",
          "type": "address"
        }
      ],
      "name": "getBalance",
      "outputs": [
        {
          "internalType": "uint256",
          "name": "",
          "type": "uint256"
        }
      ],
      "stateMutability": "view",
      "type": "function"
    },
    {
      "inputs": [
        {
          "internalType": "address",
          "name": "target",
          "type": "address"
        }
      ],
      "name": "isRegistered",
      "outputs": [
        {
          "internalType": "bool",
          "name": "",
          "type": "bool"
        }
      ],
      "stateMutability": "view",
      "type": "function"
    },
    {
      "inputs": [],
      "name": "registerUser",
      "outputs": [],
      "stateMutability": "nonpayable",
      "type": "function"
    },
    {
      "inputs": [],
      "name": "sumValues",
      "outputs": [
        {
          "internalType": "uint256",
          "name": "",
          "type": "uint256"
        }
      ],
      "stateMutability": "view",
      "type": "function"
    },
    {
      "inputs": [],
      "name": "totalAmount",
      "outputs": [
        {
          "internalType": "uint256",
          "name": "",
          "type": "uint256"
        }
      ],
      "stateMutability": "view",
      "type": "function"
    },
    {
      "inputs": [
        {
          "internalType": "address",
          "name": "to",
          "type": "address"
        },
        {
          "internalType": "uint256",
          "name": "amount",
          "type": "uint256"
        }
      ],
      "name": "transfer",
      "outputs": [],
      "stateMutability": "nonpayable",
      "type": "function"
    },
    {
      "inputs": [
        {
          "internalType": "address",
          "name": "userAddress",
          "type": "address"
        }
      ],
      "name": "usersMap",
      "outputs": [
        {
          "internalType": "uint256",
          "name": "balance",
          "type": "uint256"
        },
        {
          "internalType": "bool",
          "name": "isRegistered",
          "type": "bool"
        }
      ],
      "stateMutability": "view",
      "type": "function"
    },
    {
      "inputs": [],
      "name": "valueIndex",
      "outputs": [
        {
          "internalType": "uint256",
          "name": "",
          "type": "uint256"
        }
      ],
      "stateMutability": "view",
      "type": "function"
    },
    {
      "inputs": [
        {
          "internalType": "uint256",
          "name": "index",
          "type": "uint256"
        }
      ],
      "name": "valuesByIndex",
      "outputs": [
        {
          "internalType": "uint256",
          "name": "value",
          "type": "uint256"
        }
      ],
      "stateMutability": "view",
      "type": "function"
    }
  ],
  "bytecode": "0x6080604052348015600e575f5ffd5b5061062b8061001c5f395ff3fe608060405234801561000f575f5ffd5b50600436106100cb575f3560e01c8063b6b55f2511610088578063df9d902411610063578063df9d90241461015d578063e281447c1461019b578063e3d1360a146101d9578063f8b2cb4f146101e1575f5ffd5b8063b6b55f2514610142578063bc3ae99b14610155578063c3c5a5471461015d575f5ffd5b80631a39d8ef146100cf5780632713a04a146100eb5780634d3820eb1461010a5780635b9af12b146101145780637b16441c14610127578063a9059cbb1461012f575b5f5ffd5b6100d860015481565b6040519081526020015b60405180910390f35b6100d86100f9366004610504565b60026020525f908152604090205481565b6101126101f4565b005b610112610122366004610504565b610263565b6001546100d8565b61011261013d366004610536565b610304565b610112610150366004610504565b610418565b6100d85f5481565b61018b61016b36600461055e565b6001600160a01b03165f9081526003602052604090206001015460ff1690565b60405190151581526020016100e2565b6101c46101a936600461055e565b60036020525f90815260409020805460019091015460ff1682565b604080519283529015156020830152016100e2565b6100d8610486565b6100d86101ef36600461055e565b6104a8565b335f9081526003602052604090206001015460ff16156102275760405163ed93453560e01b815260040160405180910390fd5b6040805180820182525f808252600160208084018281523384526003909152939091209151825591519101805460ff1916911515919091179055565b335f9081526003602052604081206001015460ff161515900361029957604051632163950f60e01b815260040160405180910390fd5b5f80548152600260205260409020548190036102c85760405163060cc85360e11b815260040160405180910390fd5b5f80548152600260205260408120829055805490806102e683610592565b91905055508060015f8282546102fc91906105aa565b909155505050565b335f908152600360205260408082206001600160a01b038516835290822060018201549192909160ff161515900361034f57604051632163950f60e01b815260040160405180910390fd5b600181015460ff1615155f0361037857604051632163950f60e01b815260040160405180910390fd5b815483111561039a57604051631e9acf1760e31b815260040160405180910390fd5b82825f015f8282546103ac91906105c3565b90915550508054839082905f906103c49084906105aa565b9091555050604080513381526001600160a01b03861660208201529081018490527fddf252ad1be2c89b69c2b068fc378daa952ba7f163c4a11628f55a4df523b3ef9060600160405180910390a150505050565b335f9081526003602052604081206001810154909160ff9091161515900361045357604051632163950f60e01b815260040160405180910390fd5b81815f015f82825461046591906105aa565b925050819055508160015f82825461047d91906105aa565b90915550505050565b5f5f545f0361049457505f90565b5f546001546104a391906105d6565b905090565b6001600160a01b0381165f9081526003602090815260408083208151808301909252805482526001015460ff1615159181018290529082036104fd57604051632163950f60e01b815260040160405180910390fd5b5192915050565b5f60208284031215610514575f5ffd5b5035919050565b80356001600160a01b0381168114610531575f5ffd5b919050565b5f5f60408385031215610547575f5ffd5b6105508361051b565b946020939093013593505050565b5f6020828403121561056e575f5ffd5b6105778261051b565b9392505050565b634e487b7160e01b5f52601160045260245ffd5b5f600182016105a3576105a361057e565b5060010190565b808201808211156105bd576105bd61057e565b92915050565b818103818111156105bd576105bd61057e565b5f826105f057634e487b7160e01b5f52601260045260245ffd5b50049056fea26469706673582212201af2e85464c1e8fa460f71a53f1f934cd2a794e7e585f5c2061267c48f8ccc9664736f6c634300081c0033",
  "linkReferences": {},
  "deployedLinkReferences": {}
}