{
  "_format": "hh-sol-artifact-1",
  "contractName": "AIAgentShare",
  "sourceName": "src/L9-Excercise/AIAgentShareToken.sol",
  "abi": [
    {
      "inputs": [
        {
          "internalType": "address",
          "name": "initialOwner",
          "type": "address"
        },
        {
          "internalType": "uint256",
          "name": "_fundingAmount",
          "type": "uint256"
        },
        {
          "internalType": "address",
          "name": "_relayer",
          "type": "address"
        }
      ],
      "stateMutability": "nonpayable",
      "type": "constructor"
    },
    {
      "inputs": [],
      "name": "ECDSAInvalidSignature",
      "type": "error"
    },
    {
      "inputs": [
        {
          "internalType": "uint256",
          "name": "length",
          "type": "uint256"
        }
      ],
      "name": "ECDSAInvalidSignatureLength",
      "type": "error"
    },
    {
      "inputs": [
        {
          "internalType": "bytes32",
          "name": "s",
          "type": "bytes32"
        }
      ],
      "name": "ECDSAInvalidSignatureS",
      "type": "error"
    },
    {
      "inputs": [
        {
          "internalType": "address",
          "name": "spender",
          "type": "address"
        },
        {
          "internalType": "uint256",
          "name": "allowance",
          "type": "uint256"
        },
        {
          "internalType": "uint256",
          "name": "needed",
          "type": "uint256"
        }
      ],
      "name": "ERC20InsufficientAllowance",
      "type": "error"
    },
    {
      "inputs": [
        {
          "internalType": "address",
          "name": "sender",
          "type": "address"
        },
        {
          "internalType": "uint256",
          "name": "balance",
          "type": "uint256"
        },
        {
          "internalType": "uint256",
          "name": "needed",
          "type": "uint256"
        }
      ],
      "name": "ERC20InsufficientBalance",
      "type": "error"
    },
    {
      "inputs": [
        {
          "internalType": "address",
          "name": "approver",
          "type": "address"
        }
      ],
      "name": "ERC20InvalidApprover",
      "type": "error"
    },
    {
      "inputs": [
        {
          "internalType": "address",
          "name": "receiver",
          "type": "address"
        }
      ],
      "name": "ERC20InvalidReceiver",
      "type": "error"
    },
    {
      "inputs": [
        {
          "internalType": "address",
          "name": "sender",
          "type": "address"
        }
      ],
      "name": "ERC20InvalidSender",
      "type": "error"
    },
    {
      "inputs": [
        {
          "internalType": "address",
          "name": "spender",
          "type": "address"
        }
      ],
      "name": "ERC20InvalidSpender",
      "type": "error"
    },
    {
      "inputs": [],
      "name": "FundingRoundAlreadyFinilized",
      "type": "error"
    },
    {
      "inputs": [],
      "name": "FundingRoundNotExpired",
      "type": "error"
    },
    {
      "inputs": [],
      "name": "HasClaimedTokens",
      "type": "error"
    },
    {
      "inputs": [],
      "name": "InsufficientFundingBalance",
      "type": "error"
    },
    {
      "inputs": [],
      "name": "InsufficientFunds",
      "type": "error"
    },
    {
      "inputs": [],
      "name": "InvalidAddress",
      "type": "error"
    },
    {
      "inputs": [],
      "name": "InvalidAmount",
      "type": "error"
    },
    {
      "inputs": [],
      "name": "InvalidParticipantIndex",
      "type": "error"
    },
    {
      "inputs": [],
      "name": "InvalidShortString",
      "type": "error"
    },
    {
      "inputs": [],
      "name": "InvalidSignature",
      "type": "error"
    },
    {
      "inputs": [
        {
          "internalType": "address",
          "name": "owner",
          "type": "address"
        }
      ],
      "name": "OwnableInvalidOwner",
      "type": "error"
    },
    {
      "inputs": [
        {
          "internalType": "address",
          "name": "account",
          "type": "address"
        }
      ],
      "name": "OwnableUnauthorizedAccount",
      "type": "error"
    },
    {
      "inputs": [],
      "name": "RelayerOnlyAccess",
      "type": "error"
    },
    {
      "inputs": [
        {
          "internalType": "string",
          "name": "str",
          "type": "string"
        }
      ],
      "name": "StringTooLong",
      "type": "error"
    },
    {
      "inputs": [],
      "name": "UserNotWhitelisted",
      "type": "error"
    },
    {
      "anonymous": false,
      "inputs": [
        {
          "indexed": true,
          "internalType": "address",
          "name": "owner",
          "type": "address"
        },
        {
          "indexed": true,
          "internalType": "address",
          "name": "spender",
          "type": "address"
        },
        {
          "indexed": false,
          "internalType": "uint256",
          "name": "value",
          "type": "uint256"
        }
      ],
      "name": "Approval",
      "type": "event"
    },
    {
      "anonymous": false,
      "inputs": [
        {
          "indexed": true,
          "internalType": "address",
          "name": "authorizer",
          "type": "address"
        },
        {
          "indexed": true,
          "internalType": "address",
          "name": "target",
          "type": "address"
        }
      ],
      "name": "DelegatedPurchase",
      "type": "event"
    },
    {
      "anonymous": false,
      "inputs": [],
      "name": "EIP712DomainChanged",
      "type": "event"
    },
    {
      "anonymous": false,
      "inputs": [],
      "name": "FundingRoundFinilized",
      "type": "event"
    },
    {
      "anonymous": false,
      "inputs": [
        {
          "indexed": true,
          "internalType": "address",
          "name": "previousOwner",
          "type": "address"
        },
        {
          "indexed": true,
          "internalType": "address",
          "name": "newOwner",
          "type": "address"
        }
      ],
      "name": "OwnershipTransferred",
      "type": "event"
    },
    {
      "anonymous": false,
      "inputs": [
        {
          "indexed": true,
          "internalType": "address",
          "name": "buyer",
          "type": "address"
        }
      ],
      "name": "Purchase",
      "type": "event"
    },
    {
      "anonymous": false,
      "inputs": [
        {
          "indexed": true,
          "internalType": "address",
          "name": "from",
          "type": "address"
        },
        {
          "indexed": true,
          "internalType": "address",
          "name": "to",
          "type": "address"
        },
        {
          "indexed": false,
          "internalType": "uint256",
          "name": "value",
          "type": "uint256"
        }
      ],
      "name": "Transfer",
      "type": "event"
    },
    {
      "inputs": [],
      "name": "DELEGATE_PURCHASE_TYPE_HASH",
      "outputs": [
        {
          "internalType": "bytes32",
          "name": "",
          "type": "bytes32"
        }
      ],
      "stateMutability": "view",
      "type": "function"
    },
    {
      "inputs": [],
      "name": "MAX_BUY_AMOUNT",
      "outputs": [
        {
          "internalType": "uint256",
          "name": "",
          "type": "uint256"
        }
      ],
      "stateMutability": "view",
      "type": "function"
    },
    {
      "inputs": [],
      "name": "MIN_BUY_AMOUNT",
      "outputs": [
        {
          "internalType": "uint256",
          "name": "",
          "type": "uint256"
        }
      ],
      "stateMutability": "view",
      "type": "function"
    },
    {
      "inputs": [],
      "name": "PRICE_PER_TOKEN",
      "outputs": [
        {
          "internalType": "uint256",
          "name": "",
          "type": "uint256"
        }
      ],
      "stateMutability": "view",
      "type": "function"
    },
    {
      "inputs": [],
      "name": "RELAYER_REWARD",
      "outputs": [
        {
          "internalType": "uint256",
          "name": "",
          "type": "uint256"
        }
      ],
      "stateMutability": "view",
      "type": "function"
    },
    {
      "inputs": [],
      "name": "TOTAL_PARTICIPANTS",
      "outputs": [
        {
          "internalType": "uint256",
          "name": "",
          "type": "uint256"
        }
      ],
      "stateMutability": "view",
      "type": "function"
    },
    {
      "inputs": [
        {
          "internalType": "address",
          "name": "owner",
          "type": "address"
        },
        {
          "internalType": "address",
          "name": "spender",
          "type": "address"
        }
      ],
      "name": "allowance",
      "outputs": [
        {
          "internalType": "uint256",
          "name": "",
          "type": "uint256"
        }
      ],
      "stateMutability": "view",
      "type": "function"
    },
    {
      "inputs": [
        {
          "internalType": "address",
          "name": "spender",
          "type": "address"
        },
        {
          "internalType": "uint256",
          "name": "value",
          "type": "uint256"
        }
      ],
      "name": "approve",
      "outputs": [
        {
          "internalType": "bool",
          "name": "",
          "type": "bool"
        }
      ],
      "stateMutability": "nonpayable",
      "type": "function"
    },
    {
      "inputs": [
        {
          "internalType": "address",
          "name": "account",
          "type": "address"
        }
      ],
      "name": "balanceOf",
      "outputs": [
        {
          "internalType": "uint256",
          "name": "",
          "type": "uint256"
        }
      ],
      "stateMutability": "view",
      "type": "function"
    },
    {
      "inputs": [],
      "name": "decimals",
      "outputs": [
        {
          "internalType": "uint8",
          "name": "",
          "type": "uint8"
        }
      ],
      "stateMutability": "view",
      "type": "function"
    },
    {
      "inputs": [
        {
          "internalType": "uint256",
          "name": "userID",
          "type": "uint256"
        },
        {
          "internalType": "address",
          "name": "authorizer",
          "type": "address"
        },
        {
          "internalType": "address",
          "name": "target",
          "type": "address"
        },
        {
          "internalType": "uint256",
          "name": "amount",
          "type": "uint256"
        },
        {
          "internalType": "uint256",
          "name": "validAfter",
          "type": "uint256"
        },
        {
          "internalType": "uint256",
          "name": "expiration",
          "type": "uint256"
        },
        {
          "internalType": "bytes32",
          "name": "nonce",
          "type": "bytes32"
        },
        {
          "internalType": "bytes32[]",
          "name": "proof",
          "type": "bytes32[]"
        },
        {
          "internalType": "uint8",
          "name": "v",
          "type": "uint8"
        },
        {
          "internalType": "bytes32",
          "name": "r",
          "type": "bytes32"
        },
        {
          "internalType": "bytes32",
          "name": "s",
          "type": "bytes32"
        }
      ],
      "name": "delegatePurchase",
      "outputs": [],
      "stateMutability": "payable",
      "type": "function"
    },
    {
      "inputs": [],
      "name": "eip712Domain",
      "outputs": [
        {
          "internalType": "bytes1",
          "name": "fields",
          "type": "bytes1"
        },
        {
          "internalType": "string",
          "name": "name",
          "type": "string"
        },
        {
          "internalType": "string",
          "name": "version",
          "type": "string"
        },
        {
          "internalType": "uint256",
          "name": "chainId",
          "type": "uint256"
        },
        {
          "internalType": "address",
          "name": "verifyingContract",
          "type": "address"
        },
        {
          "internalType": "bytes32",
          "name": "salt",
          "type": "bytes32"
        },
        {
          "internalType": "uint256[]",
          "name": "extensions",
          "type": "uint256[]"
        }
      ],
      "stateMutability": "view",
      "type": "function"
    },
    {
      "inputs": [],
      "name": "expirationDate",
      "outputs": [
        {
          "internalType": "uint256",
          "name": "",
          "type": "uint256"
        }
      ],
      "stateMutability": "view",
      "type": "function"
    },
    {
      "inputs": [],
      "name": "finalizeFundingRound",
      "outputs": [],
      "stateMutability": "nonpayable",
      "type": "function"
    },
    {
      "inputs": [],
      "name": "fundingAmount",
      "outputs": [
        {
          "internalType": "uint256",
          "name": "",
          "type": "uint256"
        }
      ],
      "stateMutability": "view",
      "type": "function"
    },
    {
      "inputs": [],
      "name": "hasBeenFinalized",
      "outputs": [
        {
          "internalType": "bool",
          "name": "",
          "type": "bool"
        }
      ],
      "stateMutability": "view",
      "type": "function"
    },
    {
      "inputs": [],
      "name": "name",
      "outputs": [
        {
          "internalType": "string",
          "name": "",
          "type": "string"
        }
      ],
      "stateMutability": "view",
      "type": "function"
    },
    {
      "inputs": [],
      "name": "owner",
      "outputs": [
        {
          "internalType": "address",
          "name": "",
          "type": "address"
        }
      ],
      "stateMutability": "view",
      "type": "function"
    },
    {
      "inputs": [
        {
          "internalType": "uint256",
          "name": "userID",
          "type": "uint256"
        },
        {
          "internalType": "uint256",
          "name": "amount",
          "type": "uint256"
        },
        {
          "internalType": "bytes32[]",
          "name": "proof",
          "type": "bytes32[]"
        }
      ],
      "name": "purchase",
      "outputs": [],
      "stateMutability": "payable",
      "type": "function"
    },
    {
      "inputs": [],
      "name": "relayer",
      "outputs": [
        {
          "internalType": "address",
          "name": "",
          "type": "address"
        }
      ],
      "stateMutability": "view",
      "type": "function"
    },
    {
      "inputs": [],
      "name": "renounceOwnership",
      "outputs": [],
      "stateMutability": "nonpayable",
      "type": "function"
    },
    {
      "inputs": [],
      "name": "symbol",
      "outputs": [
        {
          "internalType": "string",
          "name": "",
          "type": "string"
        }
      ],
      "stateMutability": "view",
      "type": "function"
    },
    {
      "inputs": [],
      "name": "totalSupply",
      "outputs": [
        {
          "internalType": "uint256",
          "name": "",
          "type": "uint256"
        }
      ],
      "stateMutability": "view",
      "type": "function"
    },
    {
      "inputs": [
        {
          "internalType": "address",
          "name": "to",
          "type": "address"
        },
        {
          "internalType": "uint256",
          "name": "value",
          "type": "uint256"
        }
      ],
      "name": "transfer",
      "outputs": [
        {
          "internalType": "bool",
          "name": "",
          "type": "bool"
        }
      ],
      "stateMutability": "nonpayable",
      "type": "function"
    },
    {
      "inputs": [
        {
          "internalType": "address",
          "name": "from",
          "type": "address"
        },
        {
          "internalType": "address",
          "name": "to",
          "type": "address"
        },
        {
          "internalType": "uint256",
          "name": "value",
          "type": "uint256"
        }
      ],
      "name": "transferFrom",
      "outputs": [
        {
          "internalType": "bool",
          "name": "",
          "type": "bool"
        }
      ],
      "stateMutability": "nonpayable",
      "type": "function"
    },
    {
      "inputs": [
        {
          "internalType": "address",
          "name": "newOwner",
          "type": "address"
        }
      ],
      "name": "transferOwnership",
      "outputs": [],
      "stateMutability": "nonpayable",
      "type": "function"
    },
    {
      "inputs": [
        {
          "internalType": "uint256",
          "name": "",
          "type": "uint256"
        }
      ],
      "name": "whitelistClaimTracker",
      "outputs": [
        {
          "internalType": "uint256",
          "name": "",
          "type": "uint256"
        }
      ],
      "stateMutability": "view",
      "type": "function"
    },
    {
      "inputs": [],
      "name": "whitelisteParticipantsHash",
      "outputs": [
        {
          "internalType": "bytes32",
          "name": "",
          "type": "bytes32"
        }
      ],
      "stateMutability": "view",
      "type": "function"
    }
  ],
  "bytecode": "0x6101c0604052348015610010575f5ffd5b5060405161211838038061211883398101604081905261002f91610455565b6040518060400160405280600e81526020016d4149204167656e7420536861726560901b815250604051806040016040528060018152602001603160f81b815250846040518060400160405280600d81526020016c020a4a0b3b2b73a29b430b9329609d1b8152506040518060400160405280600381526020016241495360e81b81525081600390816100c29190610526565b5060046100cf8282610526565b5050506001600160a01b03811661010057604051631e4fbdf760e01b81525f60048201526024015b60405180910390fd5b6101098161021c565b5061011582600661026d565b6101205261012481600761026d565b61014052815160208084019190912060e052815190820120610100524660a0526101b060e05161010051604080517f8b73c3c69bb8fe3d512ecc4cf759cc79239f7b179b0ffacaa9a75d522b39400f60208201529081019290925260608201524660808201523060a08201525f9060c00160405160208183030381529060405280519060200120905090565b60805250503060c052826001600160a01b0381166101e15760405163e6c4247b60e01b815260040160405180910390fd5b60088390556001600160a01b0382166101a0526102014262278d006105e0565b6101805260085461021390859061029f565b50505050610657565b600580546001600160a01b038381166001600160a01b0319831681179093556040519116919082907f8be0079c531659141344cd1fd0a4f28419497f9722a3daafe3b4186f6b6457e0905f90a35050565b5f60208351101561028857610281836102d7565b9050610299565b816102938482610526565b5060ff90505b92915050565b6001600160a01b0382166102c85760405163ec442f0560e01b81525f60048201526024016100f7565b6102d35f8383610314565b5050565b5f5f829050601f81511115610301578260405163305a27a960e01b81526004016100f791906105ff565b805161030c82610634565b179392505050565b6001600160a01b03831661033e578060025f82825461033391906105e0565b909155506103ae9050565b6001600160a01b0383165f90815260208190526040902054818110156103905760405163391434e360e21b81526001600160a01b038516600482015260248101829052604481018390526064016100f7565b6001600160a01b0384165f9081526020819052604090209082900390555b6001600160a01b0382166103ca576002805482900390556103e8565b6001600160a01b0382165f9081526020819052604090208054820190555b816001600160a01b0316836001600160a01b03167fddf252ad1be2c89b69c2b068fc378daa952ba7f163c4a11628f55a4df523b3ef8360405161042d91815260200190565b60405180910390a3505050565b80516001600160a01b0381168114610450575f5ffd5b919050565b5f5f5f60608486031215610467575f5ffd5b6104708461043a565b9250602084015191506104856040850161043a565b90509250925092565b634e487b7160e01b5f52604160045260245ffd5b600181811c908216806104b657607f821691505b6020821081036104d457634e487b7160e01b5f52602260045260245ffd5b50919050565b601f82111561052157805f5260205f20601f840160051c810160208510156104ff5750805b601f840160051c820191505b8181101561051e575f815560010161050b565b50505b505050565b81516001600160401b0381111561053f5761053f61048e565b6105538161054d84546104a2565b846104da565b6020601f821160018114610585575f831561056e5750848201515b5f19600385901b1c1916600184901b17845561051e565b5f84815260208120601f198516915b828110156105b45787850151825560209485019460019092019101610594565b50848210156105d157868401515f19600387901b60f8161c191681555b50505050600190811b01905550565b8082018082111561029957634e487b7160e01b5f52601160045260245ffd5b602081525f82518060208401528060208501604085015e5f604082850101526040601f19601f83011684010191505092915050565b805160208083015191908110156104d4575f1960209190910360031b1b16919050565b60805160a05160c05160e05161010051610120516101405161016051610180516101a051611a3d6106db5f395f81816103b001526106a001525f818161045c015261088501525f81816102d10152610fac01525f610cc801525f610c9601525f61121c01525f6111f401525f61114f01525f61117901525f6111a30152611a3d5ff3fe6080604052600436106101af575f3560e01c80637e799858116100e757806395d89b4111610087578063d96f733511610062578063d96f7335146104e4578063dd62ed3e14610500578063f2fde38b14610544578063f4d6f49814610563575f5ffd5b806395d89b411461047e578063a9059cbb14610492578063b9be6303146104b1575f5ffd5b806384b0196e116100c257806384b0196e146103ea57806388d9f5ea146104115780638da5cb5b1461042e5780638f6204871461044b575f5ffd5b80637e7998581461036b578063833b9499146103845780638406c0791461039f575f5ffd5b80635f0a0d6b1161015257806370a082311161012d57806370a08231146102f3578063715018a61461032757806374244bc91461033b57806375405d0d14610350575f5ffd5b80635f0a0d6b1461028e578063685e089b146102ad5780636a443f67146102c0575f5ffd5b806318160ddd1161018d57806318160ddd1461022b57806323b872dd1461023f578063313ce5671461025e5780634ddc43b514610279575f5ffd5b806304a79c97146101b357806306fdde03146101db578063095ea7b3146101fc575b5f5ffd5b3480156101be575f5ffd5b506101c860085481565b6040519081526020015b60405180910390f35b3480156101e6575f5ffd5b506101ef610577565b6040516101d291906114ef565b348015610207575f5ffd5b5061021b61021636600461151c565b610607565b60405190151581526020016101d2565b348015610236575f5ffd5b506002546101c8565b34801561024a575f5ffd5b5061021b610259366004611544565b610620565b348015610269575f5ffd5b50604051601281526020016101d2565b61028c61028736600461162e565b610643565b005b348015610299575f5ffd5b506101c86102a836600461167a565b61067f565b61028c6102bb366004611691565b610695565b3480156102cb575f5ffd5b506101c87f000000000000000000000000000000000000000000000000000000000000000081565b3480156102fe575f5ffd5b506101c861030d36600461174b565b6001600160a01b03165f9081526020819052604090205490565b348015610332575f5ffd5b5061028c61078d565b348015610346575f5ffd5b506101c861012c81565b34801561035b575f5ffd5b506101c8674563918244f4000081565b348015610376575f5ffd5b5060095461021b9060ff1681565b34801561038f575f5ffd5b506101c867016345785d8a000081565b3480156103aa575f5ffd5b506103d27f000000000000000000000000000000000000000000000000000000000000000081565b6040516001600160a01b0390911681526020016101d2565b3480156103f5575f5ffd5b506103fe6107a0565b6040516101d29796959493929190611764565b34801561041c575f5ffd5b506101c8690a968163f0a57b40000181565b348015610439575f5ffd5b506005546001600160a01b03166103d2565b348015610456575f5ffd5b506101c87f000000000000000000000000000000000000000000000000000000000000000081565b348015610489575f5ffd5b506101ef6107e2565b34801561049d575f5ffd5b5061021b6104ac36600461151c565b6107f1565b3480156104bc575f5ffd5b506101c87ffc9bf37d032f38f48a078c07741a8112c5d73160d7beafc368f9603eee9b911881565b3480156104ef575f5ffd5b506101c868056bc75e2d630fffff81565b34801561050b575f5ffd5b506101c861051a3660046117fa565b6001600160a01b039182165f90815260016020908152604080832093909416825291909152205490565b34801561054f575f5ffd5b5061028c61055e36600461174b565b6107fe565b34801561056e575f5ffd5b5061028c610840565b6060600380546105869061182b565b80601f01602080910402602001604051908101604052809291908181526020018280546105b29061182b565b80156105fd5780601f106105d4576101008083540402835291602001916105fd565b820191905f5260205f20905b8154815290600101906020018083116105e057829003601f168201915b5050505050905090565b5f3361061481858561090c565b60019150505b92915050565b5f3361062d85828561091e565b61063885858561099a565b506001949350505050565b61065083338485856109f7565b60405133907f233e08777131763a85257b15eafc9f96ef08f259653d9944301ff924b3917cf5905f90a2505050565b600a816002811061068e575f80fd5b0154905081565b336001600160a01b037f000000000000000000000000000000000000000000000000000000000000000016146106de5760405163538fb16360e01b815260040160405180910390fd5b6107107ffc9bf37d032f38f48a078c07741a8112c5d73160d7beafc368f9603eee9b91188b8b8b8b8b8b8a8a8a610b22565b61072e8b8b8a610728674563918244f4000082611877565b886109f7565b61074033674563918244f40000610bd9565b886001600160a01b03168a6001600160a01b03167fa18ccddbafa2abd18f548774a92a0c9f76df5771ea5a927074cf0dce0265e6d060405160405180910390a35050505050505050505050565b610795610c11565b61079e5f610c3e565b565b5f6060805f5f5f60606107b1610c8f565b6107b9610cc1565b604080515f80825260208201909252600f60f81b9b939a50919850469750309650945092509050565b6060600480546105869061182b565b5f3361061481858561099a565b610806610c11565b6001600160a01b03811661083457604051631e4fbdf760e01b81525f60048201526024015b60405180910390fd5b61083d81610c3e565b50565b610848610c11565b60095460ff161561086c5760405163607023bf60e01b815260040160405180910390fd5b6009805460ff1916600117905560085480156108e157427f0000000000000000000000000000000000000000000000000000000000000000106108c2576040516301c4065d60e21b815260040160405180910390fd5b5f6008556108e16108db6005546001600160a01b031690565b82610bd9565b6040517fd6891bd2534e5c59dc10743e5a7b2469cb5dcf61cfba85f70efddecb2b4553a2905f90a150565b6109198383836001610cee565b505050565b6001600160a01b038381165f908152600160209081526040808320938616835292905220545f19811015610994578181101561098657604051637dc7a0d960e11b81526001600160a01b0384166004820152602481018290526044810183905260640161082b565b61099484848484035f610cee565b50505050565b6001600160a01b0383166109c357604051634b637e8f60e11b81525f600482015260240161082b565b6001600160a01b0382166109ec5760405163ec442f0560e01b81525f600482015260240161082b565b610919838383610dc0565b610a0085610ee6565b15610a1e57604051630799973160e31b815260040160405180910390fd5b610a2785610f17565b610a3385858584610f47565b610a5057604051632ba75b2560e01b815260040160405180910390fd5b826008546001610a60919061188a565b11610a7e5760405163d08480ed60e01b815260040160405180910390fd5b68056bc75e2d630fffff83118015610a9f5750690a968163f0a57b40000183105b610abc5760405163162908e360e11b815260040160405180910390fd5b5f610ac96012600a611980565b610adb67016345785d8a00008661198e565b610ae591906119b9565b9050803414610b075760405163356680b760e01b815260040160405180910390fd5b600880548590039055610b1a8584610bd9565b505050505050565b60408051602081018c90526001600160a01b03808c169282019290925290891660608201526080810188905260a0810187905260c0810186905260e081018590525f90610b88906101000160405160208183030381529060405280519060200120610fdb565b90505f610b9782868686611007565b90508a6001600160a01b0316816001600160a01b031614610bcb57604051638baa579f60e01b815260040160405180910390fd5b505050505050505050505050565b6001600160a01b038216610c025760405163ec442f0560e01b81525f600482015260240161082b565b610c0d5f8383610dc0565b5050565b6005546001600160a01b0316331461079e5760405163118cdaa760e01b815233600482015260240161082b565b600580546001600160a01b038381166001600160a01b0319831681179093556040519116919082907f8be0079c531659141344cd1fd0a4f28419497f9722a3daafe3b4186f6b6457e0905f90a35050565b6060610cbc7f00000000000000000000000000000000000000000000000000000000000000006006611033565b905090565b6060610cbc7f00000000000000000000000000000000000000000000000000000000000000006007611033565b6001600160a01b038416610d175760405163e602df0560e01b81525f600482015260240161082b565b6001600160a01b038316610d4057604051634a1406b160e11b81525f600482015260240161082b565b6001600160a01b038085165f908152600160209081526040808320938716835292905220829055801561099457826001600160a01b0316846001600160a01b03167f8c5be1e5ebec7d5bd14f71427d1e84f3dd0314c0f7b2291e5b200ac8c7c3b92584604051610db291815260200190565b60405180910390a350505050565b6001600160a01b038316610dea578060025f828254610ddf919061188a565b90915550610e5a9050565b6001600160a01b0383165f9081526020819052604090205481811015610e3c5760405163391434e360e21b81526001600160a01b0385166004820152602481018290526044810183905260640161082b565b6001600160a01b0384165f9081526020819052604090209082900390555b6001600160a01b038216610e7657600280548290039055610e94565b6001600160a01b0382165f9081526020819052604090208054820190555b816001600160a01b0316836001600160a01b03167fddf252ad1be2c89b69c2b068fc378daa952ba7f163c4a11628f55a4df523b3ef83604051610ed991815260200190565b60405180910390a3505050565b5f5f5f610ef2846110dc565b9150915080600a8360028110610f0a57610f0a6119cc565b0154161515949350505050565b5f5f610f22836110dc565b9150915080600a8360028110610f3a57610f3a6119cc565b0180549091179055505050565b60408051602081018690526001600160a01b03851691810191909152606081018390525f90819060800160408051601f1981840301815282825280516020918201209083015201604051602081830303815290604052805190602001209050610fd1837f00000000000000000000000000000000000000000000000000000000000000008361112e565b9695505050505050565b5f61061a610fe7611143565b8360405161190160f01b8152600281019290925260228201526042902090565b5f5f5f5f6110178888888861126c565b9250925092506110278282611334565b50909695505050505050565b606060ff831461104d57611046836113ec565b905061061a565b8180546110599061182b565b80601f01602080910402602001604051908101604052809291908181526020018280546110859061182b565b80156110d05780601f106110a7576101008083540402835291602001916110d0565b820191905f5260205f20905b8154815290600101906020018083116110b357829003601f168201915b5050505050905061061a565b5f5f61012c831061110057604051634d175db160e01b815260040160405180910390fd5b60ff5f61110d82866119b9565b90505f61111d60ff8416876119e0565b9196600190921b9550909350505050565b5f8261113a8584611429565b14949350505050565b5f306001600160a01b037f00000000000000000000000000000000000000000000000000000000000000001614801561119b57507f000000000000000000000000000000000000000000000000000000000000000046145b156111c557507f000000000000000000000000000000000000000000000000000000000000000090565b610cbc604080517f8b73c3c69bb8fe3d512ecc4cf759cc79239f7b179b0ffacaa9a75d522b39400f60208201527f0000000000000000000000000000000000000000000000000000000000000000918101919091527f000000000000000000000000000000000000000000000000000000000000000060608201524660808201523060a08201525f9060c00160405160208183030381529060405280519060200120905090565b5f80807f7fffffffffffffffffffffffffffffff5d576e7357a4501ddfe92f46681b20a08411156112a557505f9150600390508261132a565b604080515f808252602082018084528a905260ff891692820192909252606081018790526080810186905260019060a0016020604051602081039080840390855afa1580156112f6573d5f5f3e3d5ffd5b5050604051601f1901519150506001600160a01b03811661132157505f92506001915082905061132a565b92505f91508190505b9450945094915050565b5f826003811115611347576113476119f3565b03611350575050565b6001826003811115611364576113646119f3565b036113825760405163f645eedf60e01b815260040160405180910390fd5b6002826003811115611396576113966119f3565b036113b75760405163fce698f760e01b81526004810182905260240161082b565b60038260038111156113cb576113cb6119f3565b03610c0d576040516335e2f38360e21b81526004810182905260240161082b565b60605f6113f88361146b565b6040805160208082528183019092529192505f91906020820181803683375050509182525060208101929092525090565b5f81815b8451811015611463576114598286838151811061144c5761144c6119cc565b6020026020010151611492565b915060010161142d565b509392505050565b5f60ff8216601f81111561061a57604051632cd44ac360e21b815260040160405180910390fd5b5f8183106114ac575f8281526020849052604090206114ba565b5f8381526020839052604090205b9392505050565b5f81518084528060208401602086015e5f602082860101526020601f19601f83011685010191505092915050565b602081525f6114ba60208301846114c1565b80356001600160a01b0381168114611517575f5ffd5b919050565b5f5f6040838503121561152d575f5ffd5b61153683611501565b946020939093013593505050565b5f5f5f60608486031215611556575f5ffd5b61155f84611501565b925061156d60208501611501565b929592945050506040919091013590565b634e487b7160e01b5f52604160045260245ffd5b5f82601f8301126115a1575f5ffd5b813567ffffffffffffffff8111156115bb576115bb61157e565b8060051b604051601f19603f830116810181811067ffffffffffffffff821117156115e8576115e861157e565b604052918252602081850181019290810186841115611605575f5ffd5b6020860192505b8383101561162457823581526020928301920161160c565b5095945050505050565b5f5f5f60608486031215611640575f5ffd5b8335925060208401359150604084013567ffffffffffffffff811115611664575f5ffd5b61167086828701611592565b9150509250925092565b5f6020828403121561168a575f5ffd5b5035919050565b5f5f5f5f5f5f5f5f5f5f5f6101608c8e0312156116ac575f5ffd5b8b359a506116bc60208d01611501565b99506116ca60408d01611501565b985060608c0135975060808c0135965060a08c0135955060c08c0135945060e08c013567ffffffffffffffff811115611701575f5ffd5b61170d8e828f01611592565b9450506101008c013560ff81168114611724575f5ffd5b9a9d999c50979a969995989497509295919493610120830135935061014090920135919050565b5f6020828403121561175b575f5ffd5b6114ba82611501565b60ff60f81b8816815260e060208201525f61178260e08301896114c1565b828103604084015261179481896114c1565b606084018890526001600160a01b038716608085015260a0840186905283810360c0850152845180825260208087019350909101905f5b818110156117e95783518352602093840193909201916001016117cb565b50909b9a5050505050505050505050565b5f5f6040838503121561180b575f5ffd5b61181483611501565b915061182260208401611501565b90509250929050565b600181811c9082168061183f57607f821691505b60208210810361185d57634e487b7160e01b5f52602260045260245ffd5b50919050565b634e487b7160e01b5f52601160045260245ffd5b8181038181111561061a5761061a611863565b8082018082111561061a5761061a611863565b6001815b60018411156118d8578085048111156118bc576118bc611863565b60018416156118ca57908102905b60019390931c9280026118a1565b935093915050565b5f826118ee5750600161061a565b816118fa57505f61061a565b8160018114611910576002811461191a57611936565b600191505061061a565b60ff84111561192b5761192b611863565b50506001821b61061a565b5060208310610133831016604e8410600b8410161715611959575081810a61061a565b6119655f19848461189d565b805f190482111561197857611978611863565b029392505050565b5f6114ba60ff8416836118e0565b808202811582820484141761061a5761061a611863565b634e487b7160e01b5f52601260045260245ffd5b5f826119c7576119c76119a5565b500490565b634e487b7160e01b5f52603260045260245ffd5b5f826119ee576119ee6119a5565b500690565b634e487b7160e01b5f52602160045260245ffdfea2646970667358221220710cbb783f2277157caa984c7fedbf70dcaa17cd13f07d75e9dd2cf6a60ff1cd64736f6c634300081c0033",
  "linkReferences": {},
  "deployedLinkReferences": {}
}