{
  "_format": "hh-sol-artifact-1",
  "contractName": "AIAgentShare",
  "sourceName": "src/L9-Excercise/AIAgentShareToken.sol",
  "abi": [
    {
      "inputs": [
        {
          "internalType": "address",
          "name": "initialOwner",
          "type": "address"
        },
        {
          "internalType": "uint256",
          "name": "_fundingAmount",
          "type": "uint256"
        },
        {
          "internalType": "address",
          "name": "_relayer",
          "type": "address"
        },
        {
          "internalType": "bytes32",
          "name": "_whitelistHash",
          "type": "bytes32"
        },
        {
          "internalType": "uint256",
          "name": "_expirationDate",
          "type": "uint256"
        }
      ],
      "stateMutability": "nonpayable",
      "type": "constructor"
    },
    {
      "inputs": [],
      "name": "ECDSAInvalidSignature",
      "type": "error"
    },
    {
      "inputs": [
        {
          "internalType": "uint256",
          "name": "length",
          "type": "uint256"
        }
      ],
      "name": "ECDSAInvalidSignatureLength",
      "type": "error"
    },
    {
      "inputs": [
        {
          "internalType": "bytes32",
          "name": "s",
          "type": "bytes32"
        }
      ],
      "name": "ECDSAInvalidSignatureS",
      "type": "error"
    },
    {
      "inputs": [
        {
          "internalType": "address",
          "name": "spender",
          "type": "address"
        },
        {
          "internalType": "uint256",
          "name": "allowance",
          "type": "uint256"
        },
        {
          "internalType": "uint256",
          "name": "needed",
          "type": "uint256"
        }
      ],
      "name": "ERC20InsufficientAllowance",
      "type": "error"
    },
    {
      "inputs": [
        {
          "internalType": "address",
          "name": "sender",
          "type": "address"
        },
        {
          "internalType": "uint256",
          "name": "balance",
          "type": "uint256"
        },
        {
          "internalType": "uint256",
          "name": "needed",
          "type": "uint256"
        }
      ],
      "name": "ERC20InsufficientBalance",
      "type": "error"
    },
    {
      "inputs": [
        {
          "internalType": "address",
          "name": "approver",
          "type": "address"
        }
      ],
      "name": "ERC20InvalidApprover",
      "type": "error"
    },
    {
      "inputs": [
        {
          "internalType": "address",
          "name": "receiver",
          "type": "address"
        }
      ],
      "name": "ERC20InvalidReceiver",
      "type": "error"
    },
    {
      "inputs": [
        {
          "internalType": "address",
          "name": "sender",
          "type": "address"
        }
      ],
      "name": "ERC20InvalidSender",
      "type": "error"
    },
    {
      "inputs": [
        {
          "internalType": "address",
          "name": "spender",
          "type": "address"
        }
      ],
      "name": "ERC20InvalidSpender",
      "type": "error"
    },
    {
      "inputs": [],
      "name": "FundingRoundAlreadyFinilized",
      "type": "error"
    },
    {
      "inputs": [],
      "name": "FundingRoundNotExpired",
      "type": "error"
    },
    {
      "inputs": [],
      "name": "HasClaimedTokens",
      "type": "error"
    },
    {
      "inputs": [],
      "name": "InsufficientFundingBalance",
      "type": "error"
    },
    {
      "inputs": [],
      "name": "InsufficientFunds",
      "type": "error"
    },
    {
      "inputs": [],
      "name": "InvalidAddress",
      "type": "error"
    },
    {
      "inputs": [],
      "name": "InvalidAmount",
      "type": "error"
    },
    {
      "inputs": [],
      "name": "InvalidParticipantIndex",
      "type": "error"
    },
    {
      "inputs": [],
      "name": "InvalidShortString",
      "type": "error"
    },
    {
      "inputs": [],
      "name": "InvalidSignature",
      "type": "error"
    },
    {
      "inputs": [
        {
          "internalType": "address",
          "name": "owner",
          "type": "address"
        }
      ],
      "name": "OwnableInvalidOwner",
      "type": "error"
    },
    {
      "inputs": [
        {
          "internalType": "address",
          "name": "account",
          "type": "address"
        }
      ],
      "name": "OwnableUnauthorizedAccount",
      "type": "error"
    },
    {
      "inputs": [],
      "name": "RelayerOnlyAccess",
      "type": "error"
    },
    {
      "inputs": [
        {
          "internalType": "string",
          "name": "str",
          "type": "string"
        }
      ],
      "name": "StringTooLong",
      "type": "error"
    },
    {
      "inputs": [],
      "name": "UserNotWhitelisted",
      "type": "error"
    },
    {
      "anonymous": false,
      "inputs": [
        {
          "indexed": true,
          "internalType": "address",
          "name": "owner",
          "type": "address"
        },
        {
          "indexed": true,
          "internalType": "address",
          "name": "spender",
          "type": "address"
        },
        {
          "indexed": false,
          "internalType": "uint256",
          "name": "value",
          "type": "uint256"
        }
      ],
      "name": "Approval",
      "type": "event"
    },
    {
      "anonymous": false,
      "inputs": [
        {
          "indexed": true,
          "internalType": "address",
          "name": "authorizer",
          "type": "address"
        },
        {
          "indexed": true,
          "internalType": "address",
          "name": "target",
          "type": "address"
        }
      ],
      "name": "DelegatedPurchase",
      "type": "event"
    },
    {
      "anonymous": false,
      "inputs": [],
      "name": "EIP712DomainChanged",
      "type": "event"
    },
    {
      "anonymous": false,
      "inputs": [],
      "name": "FundingRoundFinilized",
      "type": "event"
    },
    {
      "anonymous": false,
      "inputs": [
        {
          "indexed": true,
          "internalType": "address",
          "name": "previousOwner",
          "type": "address"
        },
        {
          "indexed": true,
          "internalType": "address",
          "name": "newOwner",
          "type": "address"
        }
      ],
      "name": "OwnershipTransferred",
      "type": "event"
    },
    {
      "anonymous": false,
      "inputs": [
        {
          "indexed": true,
          "internalType": "address",
          "name": "buyer",
          "type": "address"
        }
      ],
      "name": "Purchase",
      "type": "event"
    },
    {
      "anonymous": false,
      "inputs": [
        {
          "indexed": true,
          "internalType": "address",
          "name": "from",
          "type": "address"
        },
        {
          "indexed": true,
          "internalType": "address",
          "name": "to",
          "type": "address"
        },
        {
          "indexed": false,
          "internalType": "uint256",
          "name": "value",
          "type": "uint256"
        }
      ],
      "name": "Transfer",
      "type": "event"
    },
    {
      "inputs": [],
      "name": "DELEGATE_PURCHASE_TYPE_HASH",
      "outputs": [
        {
          "internalType": "bytes32",
          "name": "",
          "type": "bytes32"
        }
      ],
      "stateMutability": "view",
      "type": "function"
    },
    {
      "inputs": [],
      "name": "MAX_BUY_AMOUNT",
      "outputs": [
        {
          "internalType": "uint256",
          "name": "",
          "type": "uint256"
        }
      ],
      "stateMutability": "view",
      "type": "function"
    },
    {
      "inputs": [],
      "name": "MIN_BUY_AMOUNT",
      "outputs": [
        {
          "internalType": "uint256",
          "name": "",
          "type": "uint256"
        }
      ],
      "stateMutability": "view",
      "type": "function"
    },
    {
      "inputs": [],
      "name": "PRICE_PER_TOKEN",
      "outputs": [
        {
          "internalType": "uint256",
          "name": "",
          "type": "uint256"
        }
      ],
      "stateMutability": "view",
      "type": "function"
    },
    {
      "inputs": [],
      "name": "RELAYER_REWARD",
      "outputs": [
        {
          "internalType": "uint256",
          "name": "",
          "type": "uint256"
        }
      ],
      "stateMutability": "view",
      "type": "function"
    },
    {
      "inputs": [],
      "name": "TOTAL_PARTICIPANTS",
      "outputs": [
        {
          "internalType": "uint256",
          "name": "",
          "type": "uint256"
        }
      ],
      "stateMutability": "view",
      "type": "function"
    },
    {
      "inputs": [
        {
          "internalType": "address",
          "name": "owner",
          "type": "address"
        },
        {
          "internalType": "address",
          "name": "spender",
          "type": "address"
        }
      ],
      "name": "allowance",
      "outputs": [
        {
          "internalType": "uint256",
          "name": "",
          "type": "uint256"
        }
      ],
      "stateMutability": "view",
      "type": "function"
    },
    {
      "inputs": [
        {
          "internalType": "address",
          "name": "spender",
          "type": "address"
        },
        {
          "internalType": "uint256",
          "name": "value",
          "type": "uint256"
        }
      ],
      "name": "approve",
      "outputs": [
        {
          "internalType": "bool",
          "name": "",
          "type": "bool"
        }
      ],
      "stateMutability": "nonpayable",
      "type": "function"
    },
    {
      "inputs": [
        {
          "internalType": "address",
          "name": "account",
          "type": "address"
        }
      ],
      "name": "balanceOf",
      "outputs": [
        {
          "internalType": "uint256",
          "name": "",
          "type": "uint256"
        }
      ],
      "stateMutability": "view",
      "type": "function"
    },
    {
      "inputs": [],
      "name": "decimals",
      "outputs": [
        {
          "internalType": "uint8",
          "name": "",
          "type": "uint8"
        }
      ],
      "stateMutability": "view",
      "type": "function"
    },
    {
      "inputs": [
        {
          "internalType": "uint256",
          "name": "userID",
          "type": "uint256"
        },
        {
          "internalType": "address",
          "name": "authorizer",
          "type": "address"
        },
        {
          "internalType": "address",
          "name": "target",
          "type": "address"
        },
        {
          "internalType": "uint256",
          "name": "amount",
          "type": "uint256"
        },
        {
          "internalType": "uint256",
          "name": "validAfter",
          "type": "uint256"
        },
        {
          "internalType": "uint256",
          "name": "expiration",
          "type": "uint256"
        },
        {
          "internalType": "bytes32",
          "name": "nonce",
          "type": "bytes32"
        },
        {
          "internalType": "bytes32[]",
          "name": "proof",
          "type": "bytes32[]"
        },
        {
          "internalType": "uint8",
          "name": "v",
          "type": "uint8"
        },
        {
          "internalType": "bytes32",
          "name": "r",
          "type": "bytes32"
        },
        {
          "internalType": "bytes32",
          "name": "s",
          "type": "bytes32"
        }
      ],
      "name": "delegatePurchase",
      "outputs": [],
      "stateMutability": "payable",
      "type": "function"
    },
    {
      "inputs": [],
      "name": "eip712Domain",
      "outputs": [
        {
          "internalType": "bytes1",
          "name": "fields",
          "type": "bytes1"
        },
        {
          "internalType": "string",
          "name": "name",
          "type": "string"
        },
        {
          "internalType": "string",
          "name": "version",
          "type": "string"
        },
        {
          "internalType": "uint256",
          "name": "chainId",
          "type": "uint256"
        },
        {
          "internalType": "address",
          "name": "verifyingContract",
          "type": "address"
        },
        {
          "internalType": "bytes32",
          "name": "salt",
          "type": "bytes32"
        },
        {
          "internalType": "uint256[]",
          "name": "extensions",
          "type": "uint256[]"
        }
      ],
      "stateMutability": "view",
      "type": "function"
    },
    {
      "inputs": [],
      "name": "expirationDate",
      "outputs": [
        {
          "internalType": "uint256",
          "name": "",
          "type": "uint256"
        }
      ],
      "stateMutability": "view",
      "type": "function"
    },
    {
      "inputs": [],
      "name": "finalizeFundingRound",
      "outputs": [],
      "stateMutability": "nonpayable",
      "type": "function"
    },
    {
      "inputs": [],
      "name": "fundingAmount",
      "outputs": [
        {
          "internalType": "uint256",
          "name": "",
          "type": "uint256"
        }
      ],
      "stateMutability": "view",
      "type": "function"
    },
    {
      "inputs": [],
      "name": "hasBeenFinalized",
      "outputs": [
        {
          "internalType": "bool",
          "name": "",
          "type": "bool"
        }
      ],
      "stateMutability": "view",
      "type": "function"
    },
    {
      "inputs": [
        {
          "internalType": "uint256",
          "name": "userID",
          "type": "uint256"
        }
      ],
      "name": "hasClaimedTokens",
      "outputs": [
        {
          "internalType": "bool",
          "name": "",
          "type": "bool"
        }
      ],
      "stateMutability": "view",
      "type": "function"
    },
    {
      "inputs": [],
      "name": "name",
      "outputs": [
        {
          "internalType": "string",
          "name": "",
          "type": "string"
        }
      ],
      "stateMutability": "view",
      "type": "function"
    },
    {
      "inputs": [],
      "name": "owner",
      "outputs": [
        {
          "internalType": "address",
          "name": "",
          "type": "address"
        }
      ],
      "stateMutability": "view",
      "type": "function"
    },
    {
      "inputs": [
        {
          "internalType": "uint256",
          "name": "userID",
          "type": "uint256"
        },
        {
          "internalType": "uint256",
          "name": "amount",
          "type": "uint256"
        },
        {
          "internalType": "bytes32[]",
          "name": "proof",
          "type": "bytes32[]"
        }
      ],
      "name": "purchase",
      "outputs": [],
      "stateMutability": "payable",
      "type": "function"
    },
    {
      "inputs": [],
      "name": "relayer",
      "outputs": [
        {
          "internalType": "address",
          "name": "",
          "type": "address"
        }
      ],
      "stateMutability": "view",
      "type": "function"
    },
    {
      "inputs": [],
      "name": "renounceOwnership",
      "outputs": [],
      "stateMutability": "nonpayable",
      "type": "function"
    },
    {
      "inputs": [],
      "name": "symbol",
      "outputs": [
        {
          "internalType": "string",
          "name": "",
          "type": "string"
        }
      ],
      "stateMutability": "view",
      "type": "function"
    },
    {
      "inputs": [],
      "name": "totalSupply",
      "outputs": [
        {
          "internalType": "uint256",
          "name": "",
          "type": "uint256"
        }
      ],
      "stateMutability": "view",
      "type": "function"
    },
    {
      "inputs": [
        {
          "internalType": "address",
          "name": "to",
          "type": "address"
        },
        {
          "internalType": "uint256",
          "name": "value",
          "type": "uint256"
        }
      ],
      "name": "transfer",
      "outputs": [
        {
          "internalType": "bool",
          "name": "",
          "type": "bool"
        }
      ],
      "stateMutability": "nonpayable",
      "type": "function"
    },
    {
      "inputs": [
        {
          "internalType": "address",
          "name": "from",
          "type": "address"
        },
        {
          "internalType": "address",
          "name": "to",
          "type": "address"
        },
        {
          "internalType": "uint256",
          "name": "value",
          "type": "uint256"
        }
      ],
      "name": "transferFrom",
      "outputs": [
        {
          "internalType": "bool",
          "name": "",
          "type": "bool"
        }
      ],
      "stateMutability": "nonpayable",
      "type": "function"
    },
    {
      "inputs": [
        {
          "internalType": "address",
          "name": "newOwner",
          "type": "address"
        }
      ],
      "name": "transferOwnership",
      "outputs": [],
      "stateMutability": "nonpayable",
      "type": "function"
    },
    {
      "inputs": [
        {
          "internalType": "uint256",
          "name": "",
          "type": "uint256"
        }
      ],
      "name": "whitelistClaimTracker",
      "outputs": [
        {
          "internalType": "uint256",
          "name": "",
          "type": "uint256"
        }
      ],
      "stateMutability": "view",
      "type": "function"
    },
    {
      "inputs": [],
      "name": "whitelisteParticipantsHash",
      "outputs": [
        {
          "internalType": "bytes32",
          "name": "",
          "type": "bytes32"
        }
      ],
      "stateMutability": "view",
      "type": "function"
    }
  ],
  "bytecode": "0x6101c0604052348015610010575f5ffd5b5060405161214e38038061214e83398101604081905261002f9161044e565b6040518060400160405280600e81526020016d4149204167656e7420536861726560901b815250604051806040016040528060018152602001603160f81b815250866040518060400160405280600d81526020016c020a4a0b3b2b73a29b430b9329609d1b8152506040518060400160405280600381526020016241495360e81b81525081600390816100c29190610532565b5060046100cf8282610532565b5050506001600160a01b03811661010057604051631e4fbdf760e01b81525f60048201526024015b60405180910390fd5b61010981610215565b50610115826006610266565b61012052610124816007610266565b61014052815160208084019190912060e052815190820120610100524660a0526101b060e05161010051604080517f8b73c3c69bb8fe3d512ecc4cf759cc79239f7b179b0ffacaa9a75d522b39400f60208201529081019290925260608201524660808201523060a08201525f9060c00160405160208183030381529060405280519060200120905090565b60805250503060c052846001600160a01b0381166101e15760405163e6c4247b60e01b815260040160405180910390fd5b60088590556001600160a01b0384166101a05261016083905261018082905261020a8686610298565b505050505050610663565b600580546001600160a01b038381166001600160a01b0319831681179093556040519116919082907f8be0079c531659141344cd1fd0a4f28419497f9722a3daafe3b4186f6b6457e0905f90a35050565b5f6020835110156102815761027a836102d0565b9050610292565b8161028c8482610532565b5060ff90505b92915050565b6001600160a01b0382166102c15760405163ec442f0560e01b81525f60048201526024016100f7565b6102cc5f838361030d565b5050565b5f5f829050601f815111156102fa578260405163305a27a960e01b81526004016100f791906105ec565b805161030582610621565b179392505050565b6001600160a01b038316610337578060025f82825461032c9190610644565b909155506103a79050565b6001600160a01b0383165f90815260208190526040902054818110156103895760405163391434e360e21b81526001600160a01b038516600482015260248101829052604481018390526064016100f7565b6001600160a01b0384165f9081526020819052604090209082900390555b6001600160a01b0382166103c3576002805482900390556103e1565b6001600160a01b0382165f9081526020819052604090208054820190555b816001600160a01b0316836001600160a01b03167fddf252ad1be2c89b69c2b068fc378daa952ba7f163c4a11628f55a4df523b3ef8360405161042691815260200190565b60405180910390a3505050565b80516001600160a01b0381168114610449575f5ffd5b919050565b5f5f5f5f5f60a08688031215610462575f5ffd5b61046b86610433565b6020870151909550935061048160408701610433565b6060870151608090970151959894975095949392505050565b634e487b7160e01b5f52604160045260245ffd5b600181811c908216806104c257607f821691505b6020821081036104e057634e487b7160e01b5f52602260045260245ffd5b50919050565b601f82111561052d57805f5260205f20601f840160051c8101602085101561050b5750805b601f840160051c820191505b8181101561052a575f8155600101610517565b50505b505050565b81516001600160401b0381111561054b5761054b61049a565b61055f8161055984546104ae565b846104e6565b6020601f821160018114610591575f831561057a5750848201515b5f19600385901b1c1916600184901b17845561052a565b5f84815260208120601f198516915b828110156105c057878501518255602094850194600190920191016105a0565b50848210156105dd57868401515f19600387901b60f8161c191681555b50505050600190811b01905550565b602081525f82518060208401528060208501604085015e5f604082850101526040601f19601f83011684010191505092915050565b805160208083015191908110156104e0575f1960209190910360031b1b16919050565b8082018082111561029257634e487b7160e01b5f52601160045260245ffd5b60805160a05160c05160e05161010051610120516101405161016051610180516101a051611a676106e75f395f81816103bb01526106ca01525f818161046701526108e001525f81816102dc015261102801525f610d2301525f610cf101525f61124601525f61121e01525f61117901525f6111a301525f6111cd0152611a675ff3fe6080604052600436106101ba575f3560e01c80637e799858116100f257806395d89b4111610092578063d96f733511610062578063d96f73351461050e578063dd62ed3e1461052a578063f2fde38b1461056e578063f4d6f4981461058d575f5ffd5b806395d89b4114610489578063a9059cbb1461049d578063b9be6303146104bc578063c17c7aee146104ef575f5ffd5b806384b0196e116100cd57806384b0196e146103f557806388d9f5ea1461041c5780638da5cb5b146104395780638f62048714610456575f5ffd5b80637e79985814610376578063833b94991461038f5780638406c079146103aa575f5ffd5b80635f0a0d6b1161015d57806370a082311161013857806370a08231146102fe578063715018a61461033257806374244bc91461034657806375405d0d1461035b575f5ffd5b80635f0a0d6b14610299578063685e089b146102b85780636a443f67146102cb575f5ffd5b806318160ddd1161019857806318160ddd1461023657806323b872dd1461024a578063313ce567146102695780634ddc43b514610284575f5ffd5b806304a79c97146101be57806306fdde03146101e6578063095ea7b314610207575b5f5ffd5b3480156101c9575f5ffd5b506101d360085481565b6040519081526020015b60405180910390f35b3480156101f1575f5ffd5b506101fa6105a1565b6040516101dd9190611519565b348015610212575f5ffd5b50610226610221366004611546565b610631565b60405190151581526020016101dd565b348015610241575f5ffd5b506002546101d3565b348015610255575f5ffd5b5061022661026436600461156e565b61064a565b348015610274575f5ffd5b50604051601281526020016101dd565b610297610292366004611658565b61066d565b005b3480156102a4575f5ffd5b506101d36102b33660046116a4565b6106a9565b6102976102c63660046116bb565b6106bf565b3480156102d6575f5ffd5b506101d37f000000000000000000000000000000000000000000000000000000000000000081565b348015610309575f5ffd5b506101d3610318366004611775565b6001600160a01b03165f9081526020819052604090205490565b34801561033d575f5ffd5b506102976107b7565b348015610351575f5ffd5b506101d361012c81565b348015610366575f5ffd5b506101d3674563918244f4000081565b348015610381575f5ffd5b506009546102269060ff1681565b34801561039a575f5ffd5b506101d367016345785d8a000081565b3480156103b5575f5ffd5b506103dd7f000000000000000000000000000000000000000000000000000000000000000081565b6040516001600160a01b0390911681526020016101dd565b348015610400575f5ffd5b506104096107ca565b6040516101dd979695949392919061178e565b348015610427575f5ffd5b506101d3690a968163f0a57b40000181565b348015610444575f5ffd5b506005546001600160a01b03166103dd565b348015610461575f5ffd5b506101d37f000000000000000000000000000000000000000000000000000000000000000081565b348015610494575f5ffd5b506101fa61080c565b3480156104a8575f5ffd5b506102266104b7366004611546565b61081b565b3480156104c7575f5ffd5b506101d37ffc9bf37d032f38f48a078c07741a8112c5d73160d7beafc368f9603eee9b911881565b3480156104fa575f5ffd5b506102266105093660046116a4565b610828565b348015610519575f5ffd5b506101d368056bc75e2d630fffff81565b348015610535575f5ffd5b506101d3610544366004611824565b6001600160a01b039182165f90815260016020908152604080832093909416825291909152205490565b348015610579575f5ffd5b50610297610588366004611775565b610859565b348015610598575f5ffd5b5061029761089b565b6060600380546105b090611855565b80601f01602080910402602001604051908101604052809291908181526020018280546105dc90611855565b80156106275780601f106105fe57610100808354040283529160200191610627565b820191905f5260205f20905b81548152906001019060200180831161060a57829003601f168201915b5050505050905090565b5f3361063e818585610967565b60019150505b92915050565b5f33610657858285610979565b6106628585856109f5565b506001949350505050565b61067a8333848585610a52565b60405133907f233e08777131763a85257b15eafc9f96ef08f259653d9944301ff924b3917cf5905f90a2505050565b600a81600281106106b8575f80fd5b0154905081565b336001600160a01b037f000000000000000000000000000000000000000000000000000000000000000016146107085760405163538fb16360e01b815260040160405180910390fd5b61073a7ffc9bf37d032f38f48a078c07741a8112c5d73160d7beafc368f9603eee9b91188b8b8b8b8b8b8a8a8a610b7d565b6107588b8b8a610752674563918244f40000826118a1565b88610a52565b61076a33674563918244f40000610c34565b886001600160a01b03168a6001600160a01b03167fa18ccddbafa2abd18f548774a92a0c9f76df5771ea5a927074cf0dce0265e6d060405160405180910390a35050505050505050505050565b6107bf610c6c565b6107c85f610c99565b565b5f6060805f5f5f60606107db610cea565b6107e3610d1c565b604080515f80825260208201909252600f60f81b9b939a50919850469750309650945092509050565b6060600480546105b090611855565b5f3361063e8185856109f5565b5f5f5f61083484610d49565b9150915080600a836002811061084c5761084c6118b4565b0154161515949350505050565b610861610c6c565b6001600160a01b03811661088f57604051631e4fbdf760e01b81525f60048201526024015b60405180910390fd5b61089881610c99565b50565b6108a3610c6c565b60095460ff16156108c75760405163607023bf60e01b815260040160405180910390fd5b6009805460ff19166001179055600854801561093c57427f00000000000000000000000000000000000000000000000000000000000000001061091d576040516301c4065d60e21b815260040160405180910390fd5b5f60085561093c6109366005546001600160a01b031690565b82610c34565b6040517fd6891bd2534e5c59dc10743e5a7b2469cb5dcf61cfba85f70efddecb2b4553a2905f90a150565b6109748383836001610d9b565b505050565b6001600160a01b038381165f908152600160209081526040808320938616835292905220545f198110156109ef57818110156109e157604051637dc7a0d960e11b81526001600160a01b03841660048201526024810182905260448101839052606401610886565b6109ef84848484035f610d9b565b50505050565b6001600160a01b038316610a1e57604051634b637e8f60e11b81525f6004820152602401610886565b6001600160a01b038216610a475760405163ec442f0560e01b81525f6004820152602401610886565b610974838383610e6d565b610a5b85610828565b15610a7957604051630799973160e31b815260040160405180910390fd5b610a8285610f93565b610a8e85858584610fc3565b610aab57604051632ba75b2560e01b815260040160405180910390fd5b826008546001610abb91906118c8565b11610ad95760405163d08480ed60e01b815260040160405180910390fd5b68056bc75e2d630fffff83118015610afa5750690a968163f0a57b40000183105b610b175760405163162908e360e11b815260040160405180910390fd5b5f610b246012600a6119be565b610b3667016345785d8a0000866119cc565b610b4091906119f7565b9050803414610b625760405163356680b760e01b815260040160405180910390fd5b600880548590039055610b758584610c34565b505050505050565b60408051602081018c90526001600160a01b03808c169282019290925290891660608201526080810188905260a0810187905260c0810186905260e081018590525f90610be3906101000160405160208183030381529060405280519060200120611057565b90505f610bf282868686611083565b90508a6001600160a01b0316816001600160a01b031614610c2657604051638baa579f60e01b815260040160405180910390fd5b505050505050505050505050565b6001600160a01b038216610c5d5760405163ec442f0560e01b81525f6004820152602401610886565b610c685f8383610e6d565b5050565b6005546001600160a01b031633146107c85760405163118cdaa760e01b8152336004820152602401610886565b600580546001600160a01b038381166001600160a01b0319831681179093556040519116919082907f8be0079c531659141344cd1fd0a4f28419497f9722a3daafe3b4186f6b6457e0905f90a35050565b6060610d177f000000000000000000000000000000000000000000000000000000000000000060066110af565b905090565b6060610d177f000000000000000000000000000000000000000000000000000000000000000060076110af565b5f5f61012c8310610d6d57604051634d175db160e01b815260040160405180910390fd5b60ff5f610d7a82866119f7565b90505f610d8a60ff841687611a0a565b9196600190921b9550909350505050565b6001600160a01b038416610dc45760405163e602df0560e01b81525f6004820152602401610886565b6001600160a01b038316610ded57604051634a1406b160e11b81525f6004820152602401610886565b6001600160a01b038085165f90815260016020908152604080832093871683529290522082905580156109ef57826001600160a01b0316846001600160a01b03167f8c5be1e5ebec7d5bd14f71427d1e84f3dd0314c0f7b2291e5b200ac8c7c3b92584604051610e5f91815260200190565b60405180910390a350505050565b6001600160a01b038316610e97578060025f828254610e8c91906118c8565b90915550610f079050565b6001600160a01b0383165f9081526020819052604090205481811015610ee95760405163391434e360e21b81526001600160a01b03851660048201526024810182905260448101839052606401610886565b6001600160a01b0384165f9081526020819052604090209082900390555b6001600160a01b038216610f2357600280548290039055610f41565b6001600160a01b0382165f9081526020819052604090208054820190555b816001600160a01b0316836001600160a01b03167fddf252ad1be2c89b69c2b068fc378daa952ba7f163c4a11628f55a4df523b3ef83604051610f8691815260200190565b60405180910390a3505050565b5f5f610f9e83610d49565b9150915080600a8360028110610fb657610fb66118b4565b0180549091179055505050565b60408051602081018690526001600160a01b03851691810191909152606081018390525f90819060800160408051601f198184030181528282528051602091820120908301520160405160208183030381529060405280519060200120905061104d837f000000000000000000000000000000000000000000000000000000000000000083611158565b9695505050505050565b5f61064461106361116d565b8360405161190160f01b8152600281019290925260228201526042902090565b5f5f5f5f61109388888888611296565b9250925092506110a3828261135e565b50909695505050505050565b606060ff83146110c9576110c283611416565b9050610644565b8180546110d590611855565b80601f016020809104026020016040519081016040528092919081815260200182805461110190611855565b801561114c5780601f106111235761010080835404028352916020019161114c565b820191905f5260205f20905b81548152906001019060200180831161112f57829003601f168201915b50505050509050610644565b5f826111648584611453565b14949350505050565b5f306001600160a01b037f0000000000000000000000000000000000000000000000000000000000000000161480156111c557507f000000000000000000000000000000000000000000000000000000000000000046145b156111ef57507f000000000000000000000000000000000000000000000000000000000000000090565b610d17604080517f8b73c3c69bb8fe3d512ecc4cf759cc79239f7b179b0ffacaa9a75d522b39400f60208201527f0000000000000000000000000000000000000000000000000000000000000000918101919091527f000000000000000000000000000000000000000000000000000000000000000060608201524660808201523060a08201525f9060c00160405160208183030381529060405280519060200120905090565b5f80807f7fffffffffffffffffffffffffffffff5d576e7357a4501ddfe92f46681b20a08411156112cf57505f91506003905082611354565b604080515f808252602082018084528a905260ff891692820192909252606081018790526080810186905260019060a0016020604051602081039080840390855afa158015611320573d5f5f3e3d5ffd5b5050604051601f1901519150506001600160a01b03811661134b57505f925060019150829050611354565b92505f91508190505b9450945094915050565b5f82600381111561137157611371611a1d565b0361137a575050565b600182600381111561138e5761138e611a1d565b036113ac5760405163f645eedf60e01b815260040160405180910390fd5b60028260038111156113c0576113c0611a1d565b036113e15760405163fce698f760e01b815260048101829052602401610886565b60038260038111156113f5576113f5611a1d565b03610c68576040516335e2f38360e21b815260048101829052602401610886565b60605f61142283611495565b6040805160208082528183019092529192505f91906020820181803683375050509182525060208101929092525090565b5f81815b845181101561148d5761148382868381518110611476576114766118b4565b60200260200101516114bc565b9150600101611457565b509392505050565b5f60ff8216601f81111561064457604051632cd44ac360e21b815260040160405180910390fd5b5f8183106114d6575f8281526020849052604090206114e4565b5f8381526020839052604090205b9392505050565b5f81518084528060208401602086015e5f602082860101526020601f19601f83011685010191505092915050565b602081525f6114e460208301846114eb565b80356001600160a01b0381168114611541575f5ffd5b919050565b5f5f60408385031215611557575f5ffd5b6115608361152b565b946020939093013593505050565b5f5f5f60608486031215611580575f5ffd5b6115898461152b565b92506115976020850161152b565b929592945050506040919091013590565b634e487b7160e01b5f52604160045260245ffd5b5f82601f8301126115cb575f5ffd5b813567ffffffffffffffff8111156115e5576115e56115a8565b8060051b604051601f19603f830116810181811067ffffffffffffffff82111715611612576116126115a8565b60405291825260208185018101929081018684111561162f575f5ffd5b6020860192505b8383101561164e578235815260209283019201611636565b5095945050505050565b5f5f5f6060848603121561166a575f5ffd5b8335925060208401359150604084013567ffffffffffffffff81111561168e575f5ffd5b61169a868287016115bc565b9150509250925092565b5f602082840312156116b4575f5ffd5b5035919050565b5f5f5f5f5f5f5f5f5f5f5f6101608c8e0312156116d6575f5ffd5b8b359a506116e660208d0161152b565b99506116f460408d0161152b565b985060608c0135975060808c0135965060a08c0135955060c08c0135945060e08c013567ffffffffffffffff81111561172b575f5ffd5b6117378e828f016115bc565b9450506101008c013560ff8116811461174e575f5ffd5b9a9d999c50979a969995989497509295919493610120830135935061014090920135919050565b5f60208284031215611785575f5ffd5b6114e48261152b565b60ff60f81b8816815260e060208201525f6117ac60e08301896114eb565b82810360408401526117be81896114eb565b606084018890526001600160a01b038716608085015260a0840186905283810360c0850152845180825260208087019350909101905f5b818110156118135783518352602093840193909201916001016117f5565b50909b9a5050505050505050505050565b5f5f60408385031215611835575f5ffd5b61183e8361152b565b915061184c6020840161152b565b90509250929050565b600181811c9082168061186957607f821691505b60208210810361188757634e487b7160e01b5f52602260045260245ffd5b50919050565b634e487b7160e01b5f52601160045260245ffd5b818103818111156106445761064461188d565b634e487b7160e01b5f52603260045260245ffd5b808201808211156106445761064461188d565b6001815b6001841115611916578085048111156118fa576118fa61188d565b600184161561190857908102905b60019390931c9280026118df565b935093915050565b5f8261192c57506001610644565b8161193857505f610644565b816001811461194e576002811461195857611974565b6001915050610644565b60ff8411156119695761196961188d565b50506001821b610644565b5060208310610133831016604e8410600b8410161715611997575081810a610644565b6119a35f1984846118db565b805f19048211156119b6576119b661188d565b029392505050565b5f6114e460ff84168361191e565b80820281158282048414176106445761064461188d565b634e487b7160e01b5f52601260045260245ffd5b5f82611a0557611a056119e3565b500490565b5f82611a1857611a186119e3565b500690565b634e487b7160e01b5f52602160045260245ffdfea2646970667358221220911043861ceda4bc3e96d1692a9dd31284aba277a0da9e03092d846d3222bc0064736f6c634300081c0033",
  "linkReferences": {},
  "deployedLinkReferences": {}
}