{
  "_format": "hh-sol-artifact-1",
  "contractName": "TicketNFT",
  "sourceName": "src/L3-Foundry-Toolchain/TicketNFT.sol",
  "abi": [
    {
      "inputs": [
        {
          "internalType": "string",
          "name": "name",
          "type": "string"
        },
        {
          "internalType": "string",
          "name": "symbol",
          "type": "string"
        }
      ],
      "stateMutability": "nonpayable",
      "type": "constructor"
    },
    {
      "inputs": [],
      "name": "ERC721EnumerableForbiddenBatchMint",
      "type": "error"
    },
    {
      "inputs": [
        {
          "internalType": "address",
          "name": "sender",
          "type": "address"
        },
        {
          "internalType": "uint256",
          "name": "tokenId",
          "type": "uint256"
        },
        {
          "internalType": "address",
          "name": "owner",
          "type": "address"
        }
      ],
      "name": "ERC721IncorrectOwner",
      "type": "error"
    },
    {
      "inputs": [
        {
          "internalType": "address",
          "name": "operator",
          "type": "address"
        },
        {
          "internalType": "uint256",
          "name": "tokenId",
          "type": "uint256"
        }
      ],
      "name": "ERC721InsufficientApproval",
      "type": "error"
    },
    {
      "inputs": [
        {
          "internalType": "address",
          "name": "approver",
          "type": "address"
        }
      ],
      "name": "ERC721InvalidApprover",
      "type": "error"
    },
    {
      "inputs": [
        {
          "internalType": "address",
          "name": "operator",
          "type": "address"
        }
      ],
      "name": "ERC721InvalidOperator",
      "type": "error"
    },
    {
      "inputs": [
        {
          "internalType": "address",
          "name": "owner",
          "type": "address"
        }
      ],
      "name": "ERC721InvalidOwner",
      "type": "error"
    },
    {
      "inputs": [
        {
          "internalType": "address",
          "name": "receiver",
          "type": "address"
        }
      ],
      "name": "ERC721InvalidReceiver",
      "type": "error"
    },
    {
      "inputs": [
        {
          "internalType": "address",
          "name": "sender",
          "type": "address"
        }
      ],
      "name": "ERC721InvalidSender",
      "type": "error"
    },
    {
      "inputs": [
        {
          "internalType": "uint256",
          "name": "tokenId",
          "type": "uint256"
        }
      ],
      "name": "ERC721NonexistentToken",
      "type": "error"
    },
    {
      "inputs": [
        {
          "internalType": "address",
          "name": "owner",
          "type": "address"
        },
        {
          "internalType": "uint256",
          "name": "index",
          "type": "uint256"
        }
      ],
      "name": "ERC721OutOfBoundsIndex",
      "type": "error"
    },
    {
      "inputs": [
        {
          "internalType": "address",
          "name": "owner",
          "type": "address"
        }
      ],
      "name": "OwnableInvalidOwner",
      "type": "error"
    },
    {
      "inputs": [
        {
          "internalType": "address",
          "name": "account",
          "type": "address"
        }
      ],
      "name": "OwnableUnauthorizedAccount",
      "type": "error"
    },
    {
      "anonymous": false,
      "inputs": [
        {
          "indexed": true,
          "internalType": "address",
          "name": "owner",
          "type": "address"
        },
        {
          "indexed": true,
          "internalType": "address",
          "name": "approved",
          "type": "address"
        },
        {
          "indexed": true,
          "internalType": "uint256",
          "name": "tokenId",
          "type": "uint256"
        }
      ],
      "name": "Approval",
      "type": "event"
    },
    {
      "anonymous": false,
      "inputs": [
        {
          "indexed": true,
          "internalType": "address",
          "name": "owner",
          "type": "address"
        },
        {
          "indexed": true,
          "internalType": "address",
          "name": "operator",
          "type": "address"
        },
        {
          "indexed": false,
          "internalType": "bool",
          "name": "approved",
          "type": "bool"
        }
      ],
      "name": "ApprovalForAll",
      "type": "event"
    },
    {
      "anonymous": false,
      "inputs": [
        {
          "indexed": true,
          "internalType": "address",
          "name": "previousOwner",
          "type": "address"
        },
        {
          "indexed": true,
          "internalType": "address",
          "name": "newOwner",
          "type": "address"
        }
      ],
      "name": "OwnershipTransferStarted",
      "type": "event"
    },
    {
      "anonymous": false,
      "inputs": [
        {
          "indexed": true,
          "internalType": "address",
          "name": "previousOwner",
          "type": "address"
        },
        {
          "indexed": true,
          "internalType": "address",
          "name": "newOwner",
          "type": "address"
        }
      ],
      "name": "OwnershipTransferred",
      "type": "event"
    },
    {
      "anonymous": false,
      "inputs": [
        {
          "indexed": true,
          "internalType": "address",
          "name": "from",
          "type": "address"
        },
        {
          "indexed": true,
          "internalType": "address",
          "name": "to",
          "type": "address"
        },
        {
          "indexed": true,
          "internalType": "uint256",
          "name": "tokenId",
          "type": "uint256"
        }
      ],
      "name": "Transfer",
      "type": "event"
    },
    {
      "inputs": [],
      "name": "acceptOwnership",
      "outputs": [],
      "stateMutability": "nonpayable",
      "type": "function"
    },
    {
      "inputs": [
        {
          "internalType": "address",
          "name": "to",
          "type": "address"
        },
        {
          "internalType": "uint256",
          "name": "tokenId",
          "type": "uint256"
        }
      ],
      "name": "approve",
      "outputs": [],
      "stateMutability": "nonpayable",
      "type": "function"
    },
    {
      "inputs": [
        {
          "internalType": "address",
          "name": "owner",
          "type": "address"
        }
      ],
      "name": "balanceOf",
      "outputs": [
        {
          "internalType": "uint256",
          "name": "",
          "type": "uint256"
        }
      ],
      "stateMutability": "view",
      "type": "function"
    },
    {
      "inputs": [
        {
          "internalType": "uint256",
          "name": "tokenId",
          "type": "uint256"
        }
      ],
      "name": "getApproved",
      "outputs": [
        {
          "internalType": "address",
          "name": "",
          "type": "address"
        }
      ],
      "stateMutability": "view",
      "type": "function"
    },
    {
      "inputs": [
        {
          "internalType": "address",
          "name": "owner",
          "type": "address"
        },
        {
          "internalType": "address",
          "name": "operator",
          "type": "address"
        }
      ],
      "name": "isApprovedForAll",
      "outputs": [
        {
          "internalType": "bool",
          "name": "",
          "type": "bool"
        }
      ],
      "stateMutability": "view",
      "type": "function"
    },
    {
      "inputs": [],
      "name": "name",
      "outputs": [
        {
          "internalType": "string",
          "name": "",
          "type": "string"
        }
      ],
      "stateMutability": "view",
      "type": "function"
    },
    {
      "inputs": [],
      "name": "owner",
      "outputs": [
        {
          "internalType": "address",
          "name": "",
          "type": "address"
        }
      ],
      "stateMutability": "view",
      "type": "function"
    },
    {
      "inputs": [
        {
          "internalType": "uint256",
          "name": "tokenId",
          "type": "uint256"
        }
      ],
      "name": "ownerOf",
      "outputs": [
        {
          "internalType": "address",
          "name": "",
          "type": "address"
        }
      ],
      "stateMutability": "view",
      "type": "function"
    },
    {
      "inputs": [],
      "name": "pendingOwner",
      "outputs": [
        {
          "internalType": "address",
          "name": "",
          "type": "address"
        }
      ],
      "stateMutability": "view",
      "type": "function"
    },
    {
      "inputs": [],
      "name": "renounceOwnership",
      "outputs": [],
      "stateMutability": "nonpayable",
      "type": "function"
    },
    {
      "inputs": [
        {
          "internalType": "address",
          "name": "to",
          "type": "address"
        }
      ],
      "name": "safeMint",
      "outputs": [
        {
          "internalType": "uint256",
          "name": "tokenId",
          "type": "uint256"
        }
      ],
      "stateMutability": "nonpayable",
      "type": "function"
    },
    {
      "inputs": [
        {
          "internalType": "address",
          "name": "from",
          "type": "address"
        },
        {
          "internalType": "address",
          "name": "to",
          "type": "address"
        },
        {
          "internalType": "uint256",
          "name": "tokenId",
          "type": "uint256"
        }
      ],
      "name": "safeTransferFrom",
      "outputs": [],
      "stateMutability": "nonpayable",
      "type": "function"
    },
    {
      "inputs": [
        {
          "internalType": "address",
          "name": "from",
          "type": "address"
        },
        {
          "internalType": "address",
          "name": "to",
          "type": "address"
        },
        {
          "internalType": "uint256",
          "name": "tokenId",
          "type": "uint256"
        },
        {
          "internalType": "bytes",
          "name": "data",
          "type": "bytes"
        }
      ],
      "name": "safeTransferFrom",
      "outputs": [],
      "stateMutability": "nonpayable",
      "type": "function"
    },
    {
      "inputs": [
        {
          "internalType": "address",
          "name": "operator",
          "type": "address"
        },
        {
          "internalType": "bool",
          "name": "approved",
          "type": "bool"
        }
      ],
      "name": "setApprovalForAll",
      "outputs": [],
      "stateMutability": "nonpayable",
      "type": "function"
    },
    {
      "inputs": [
        {
          "internalType": "bytes4",
          "name": "interfaceId",
          "type": "bytes4"
        }
      ],
      "name": "supportsInterface",
      "outputs": [
        {
          "internalType": "bool",
          "name": "",
          "type": "bool"
        }
      ],
      "stateMutability": "view",
      "type": "function"
    },
    {
      "inputs": [],
      "name": "symbol",
      "outputs": [
        {
          "internalType": "string",
          "name": "",
          "type": "string"
        }
      ],
      "stateMutability": "view",
      "type": "function"
    },
    {
      "inputs": [
        {
          "internalType": "uint256",
          "name": "index",
          "type": "uint256"
        }
      ],
      "name": "tokenByIndex",
      "outputs": [
        {
          "internalType": "uint256",
          "name": "",
          "type": "uint256"
        }
      ],
      "stateMutability": "view",
      "type": "function"
    },
    {
      "inputs": [
        {
          "internalType": "address",
          "name": "owner",
          "type": "address"
        },
        {
          "internalType": "uint256",
          "name": "index",
          "type": "uint256"
        }
      ],
      "name": "tokenOfOwnerByIndex",
      "outputs": [
        {
          "internalType": "uint256",
          "name": "",
          "type": "uint256"
        }
      ],
      "stateMutability": "view",
      "type": "function"
    },
    {
      "inputs": [
        {
          "internalType": "uint256",
          "name": "tokenId",
          "type": "uint256"
        }
      ],
      "name": "tokenURI",
      "outputs": [
        {
          "internalType": "string",
          "name": "",
          "type": "string"
        }
      ],
      "stateMutability": "view",
      "type": "function"
    },
    {
      "inputs": [],
      "name": "totalSupply",
      "outputs": [
        {
          "internalType": "uint256",
          "name": "",
          "type": "uint256"
        }
      ],
      "stateMutability": "view",
      "type": "function"
    },
    {
      "inputs": [
        {
          "internalType": "address",
          "name": "from",
          "type": "address"
        },
        {
          "internalType": "address",
          "name": "to",
          "type": "address"
        },
        {
          "internalType": "uint256",
          "name": "tokenId",
          "type": "uint256"
        }
      ],
      "name": "transferFrom",
      "outputs": [],
      "stateMutability": "nonpayable",
      "type": "function"
    },
    {
      "inputs": [
        {
          "internalType": "address",
          "name": "newOwner",
          "type": "address"
        }
      ],
      "name": "transferOwnership",
      "outputs": [],
      "stateMutability": "nonpayable",
      "type": "function"
    }
  ],
  "bytecode": "0x608060405234801561000f575f5ffd5b5060405161186338038061186383398101604081905261002e91610194565b3382825f61003c838261027d565b506001610049828261027d565b5050506001600160a01b03811661007957604051631e4fbdf760e01b81525f600482015260240160405180910390fd5b6100828161008a565b505050610337565b600b80546001600160a01b03191690556100a3816100a6565b50565b600a80546001600160a01b038381166001600160a01b0319831681179093556040519116919082907f8be0079c531659141344cd1fd0a4f28419497f9722a3daafe3b4186f6b6457e0905f90a35050565b634e487b7160e01b5f52604160045260245ffd5b5f82601f83011261011a575f5ffd5b81516001600160401b03811115610133576101336100f7565b604051601f8201601f19908116603f011681016001600160401b0381118282101715610161576101616100f7565b604052818152838201602001851015610178575f5ffd5b8160208501602083015e5f918101602001919091529392505050565b5f5f604083850312156101a5575f5ffd5b82516001600160401b038111156101ba575f5ffd5b6101c68582860161010b565b602085015190935090506001600160401b038111156101e3575f5ffd5b6101ef8582860161010b565b9150509250929050565b600181811c9082168061020d57607f821691505b60208210810361022b57634e487b7160e01b5f52602260045260245ffd5b50919050565b601f82111561027857805f5260205f20601f840160051c810160208510156102565750805b601f840160051c820191505b81811015610275575f8155600101610262565b50505b505050565b81516001600160401b03811115610296576102966100f7565b6102aa816102a484546101f9565b84610231565b6020601f8211600181146102dc575f83156102c55750848201515b5f19600385901b1c1916600184901b178455610275565b5f84815260208120601f198516915b8281101561030b57878501518255602094850194600190920191016102eb565b508482101561032857868401515f19600387901b60f8161c191681555b50505050600190811b01905550565b61151f806103445f395ff3fe608060405234801561000f575f5ffd5b506004361061013d575f3560e01c806370a08231116100b4578063a22cb46511610079578063a22cb4651461027e578063b88d4fde14610291578063c87b56dd146102a4578063e30c3978146102b7578063e985e9c5146102c8578063f2fde38b146102db575f5ffd5b806370a0823114610242578063715018a61461025557806379ba50971461025d5780638da5cb5b1461026557806395d89b4114610276575f5ffd5b806323b872dd1161010557806323b872dd146101d05780632f745c59146101e357806340d097c3146101f657806342842e0e146102095780634f6ccce71461021c5780636352211e1461022f575f5ffd5b806301ffc9a71461014157806306fdde0314610169578063081812fc1461017e578063095ea7b3146101a957806318160ddd146101be575b5f5ffd5b61015461014f36600461116a565b6102ee565b60405190151581526020015b60405180910390f35b6101716102fe565b60405161016091906111b3565b61019161018c3660046111c5565b61038d565b6040516001600160a01b039091168152602001610160565b6101bc6101b73660046111f2565b6103b4565b005b6008545b604051908152602001610160565b6101bc6101de36600461121a565b6103c3565b6101c26101f13660046111f2565b610451565b6101c2610204366004611254565b6104b4565b6101bc61021736600461121a565b6104e1565b6101c261022a3660046111c5565b610500565b61019161023d3660046111c5565b610555565b6101c2610250366004611254565b61055f565b6101bc6105a4565b6101bc6105b7565b600a546001600160a01b0316610191565b6101716105fb565b6101bc61028c36600461126d565b61060a565b6101bc61029f3660046112ba565b610615565b6101716102b23660046111c5565b61062d565b600b546001600160a01b0316610191565b6101546102d6366004611397565b61069e565b6101bc6102e9366004611254565b6106cb565b5f6102f88261073c565b92915050565b60605f805461030c906113c8565b80601f0160208091040260200160405190810160405280929190818152602001828054610338906113c8565b80156103835780601f1061035a57610100808354040283529160200191610383565b820191905f5260205f20905b81548152906001019060200180831161036657829003601f168201915b5050505050905090565b5f61039782610760565b505f828152600460205260409020546001600160a01b03166102f8565b6103bf828233610798565b5050565b6001600160a01b0382166103f157604051633250574960e11b81525f60048201526024015b60405180910390fd5b5f6103fd8383336107a5565b9050836001600160a01b0316816001600160a01b03161461044b576040516364283d7b60e01b81526001600160a01b03808616600483015260248201849052821660448201526064016103e8565b50505050565b5f61045b8361055f565b821061048c5760405163295f44f760e21b81526001600160a01b0384166004820152602481018390526044016103e8565b506001600160a01b03919091165f908152600660209081526040808320938352929052205490565b5f6104bd6107b9565b600c8054905f6104cc83611414565b9190505590506104dc82826107e6565b919050565b6104fb83838360405180602001604052805f815250610615565b505050565b5f61050a60085490565b82106105325760405163295f44f760e21b81525f6004820152602481018390526044016103e8565b600882815481106105455761054561142c565b905f5260205f2001549050919050565b5f6102f882610760565b5f6001600160a01b038216610589576040516322718ad960e21b81525f60048201526024016103e8565b506001600160a01b03165f9081526003602052604090205490565b6105ac6107b9565b6105b55f6107ff565b565b600b5433906001600160a01b031681146105ef5760405163118cdaa760e01b81526001600160a01b03821660048201526024016103e8565b6105f8816107ff565b50565b60606001805461030c906113c8565b6103bf338383610818565b6106208484846103c3565b61044b33858585856108b6565b606061063882610760565b505f61064e60408051602081019091525f815290565b90505f81511161066c5760405180602001604052805f815250610697565b80610676846109de565b604051602001610687929190611457565b6040516020818303038152906040525b9392505050565b6001600160a01b039182165f90815260056020908152604080832093909416825291909152205460ff1690565b6106d36107b9565b600b80546001600160a01b0383166001600160a01b03199091168117909155610704600a546001600160a01b031690565b6001600160a01b03167f38d16b8cac22d99fc7c124b9cd0de2d3fa1faef420bfe791d8c362d765e2270060405160405180910390a350565b5f6001600160e01b0319821663780e9d6360e01b14806102f857506102f882610a6e565b5f818152600260205260408120546001600160a01b0316806102f857604051637e27328960e01b8152600481018490526024016103e8565b6104fb8383836001610abd565b5f6107b1848484610bc1565b949350505050565b600a546001600160a01b031633146105b55760405163118cdaa760e01b81523360048201526024016103e8565b6103bf828260405180602001604052805f815250610c8c565b600b80546001600160a01b03191690556105f881610ca3565b6001600160a01b03821661084a57604051630b61174360e31b81526001600160a01b03831660048201526024016103e8565b6001600160a01b038381165f81815260056020908152604080832094871680845294825291829020805460ff191686151590811790915591519182527f17307eab39ab6107e8899845ad3d59bd9653f200f220920489ca2b5937696c31910160405180910390a3505050565b6001600160a01b0383163b156109d757604051630a85bd0160e11b81526001600160a01b0384169063150b7a02906108f890889088908790879060040161146b565b6020604051808303815f875af1925050508015610932575060408051601f3d908101601f1916820190925261092f918101906114a7565b60015b610999573d80801561095f576040519150601f19603f3d011682016040523d82523d5f602084013e610964565b606091505b5080515f0361099157604051633250574960e11b81526001600160a01b03851660048201526024016103e8565b805181602001fd5b6001600160e01b03198116630a85bd0160e11b146109d557604051633250574960e11b81526001600160a01b03851660048201526024016103e8565b505b5050505050565b60605f6109ea83610cf4565b60010190505f8167ffffffffffffffff811115610a0957610a096112a6565b6040519080825280601f01601f191660200182016040528015610a33576020820181803683370190505b5090508181016020015b5f19016f181899199a1a9b1b9c1cb0b131b232b360811b600a86061a8153600a8504945084610a3d57509392505050565b5f6001600160e01b031982166380ac58cd60e01b1480610a9e57506001600160e01b03198216635b5e139f60e01b145b806102f857506301ffc9a760e01b6001600160e01b03198316146102f8565b8080610ad157506001600160a01b03821615155b15610b92575f610ae084610760565b90506001600160a01b03831615801590610b0c5750826001600160a01b0316816001600160a01b031614155b8015610b1f5750610b1d818461069e565b155b15610b485760405163a9fbf51f60e01b81526001600160a01b03841660048201526024016103e8565b8115610b905783856001600160a01b0316826001600160a01b03167f8c5be1e5ebec7d5bd14f71427d1e84f3dd0314c0f7b2291e5b200ac8c7c3b92560405160405180910390a45b505b50505f90815260046020526040902080546001600160a01b0319166001600160a01b0392909216919091179055565b5f5f610bce858585610dcb565b90506001600160a01b038116610c2a57610c2584600880545f838152600960205260408120829055600182018355919091527ff3f7a9fe364faab93b216da50a3214154f22a0a2b415b23a84c8169e8b636ee30155565b610c4d565b846001600160a01b0316816001600160a01b031614610c4d57610c4d8185610ebd565b6001600160a01b038516610c6957610c6484610f3a565b6107b1565b846001600160a01b0316816001600160a01b0316146107b1576107b18585610fe1565b610c96838361102f565b6104fb335f8585856108b6565b600a80546001600160a01b038381166001600160a01b0319831681179093556040519116919082907f8be0079c531659141344cd1fd0a4f28419497f9722a3daafe3b4186f6b6457e0905f90a35050565b5f8072184f03e93ff9f4daa797ed6e38ed64bf6a1f0160401b8310610d325772184f03e93ff9f4daa797ed6e38ed64bf6a1f0160401b830492506040015b6d04ee2d6d415b85acef81000000008310610d5e576d04ee2d6d415b85acef8100000000830492506020015b662386f26fc100008310610d7c57662386f26fc10000830492506010015b6305f5e1008310610d94576305f5e100830492506008015b6127108310610da857612710830492506004015b60648310610dba576064830492506002015b600a83106102f85760010192915050565b5f828152600260205260408120546001600160a01b0390811690831615610df757610df7818486611090565b6001600160a01b03811615610e3157610e125f855f5f610abd565b6001600160a01b0381165f90815260036020526040902080545f190190555b6001600160a01b03851615610e5f576001600160a01b0385165f908152600360205260409020805460010190555b5f8481526002602052604080822080546001600160a01b0319166001600160a01b0389811691821790925591518793918516917fddf252ad1be2c89b69c2b068fc378daa952ba7f163c4a11628f55a4df523b3ef91a4949350505050565b5f610ec78361055f565b5f838152600760209081526040808320546001600160a01b0388168452600690925290912091925090818314610f1c575f83815260208281526040808320548584528184208190558352600790915290208290555b5f938452600760209081526040808620869055938552525081205550565b6008545f90610f4b906001906114c2565b5f8381526009602052604081205460088054939450909284908110610f7257610f7261142c565b905f5260205f20015490508060088381548110610f9157610f9161142c565b5f918252602080832090910192909255828152600990915260408082208490558582528120556008805480610fc857610fc86114d5565b600190038181905f5260205f20015f9055905550505050565b5f6001610fed8461055f565b610ff791906114c2565b6001600160a01b039093165f908152600660209081526040808320868452825280832085905593825260079052919091209190915550565b6001600160a01b03821661105857604051633250574960e11b81525f60048201526024016103e8565b5f61106483835f6107a5565b90506001600160a01b038116156104fb576040516339e3563760e11b81525f60048201526024016103e8565b61109b8383836110f4565b6104fb576001600160a01b0383166110c957604051637e27328960e01b8152600481018290526024016103e8565b60405163177e802f60e01b81526001600160a01b0383166004820152602481018290526044016103e8565b5f6001600160a01b038316158015906107b15750826001600160a01b0316846001600160a01b0316148061112d575061112d848461069e565b806107b15750505f908152600460205260409020546001600160a01b03908116911614919050565b6001600160e01b0319811681146105f8575f5ffd5b5f6020828403121561117a575f5ffd5b813561069781611155565b5f81518084528060208401602086015e5f602082860101526020601f19601f83011685010191505092915050565b602081525f6106976020830184611185565b5f602082840312156111d5575f5ffd5b5035919050565b80356001600160a01b03811681146104dc575f5ffd5b5f5f60408385031215611203575f5ffd5b61120c836111dc565b946020939093013593505050565b5f5f5f6060848603121561122c575f5ffd5b611235846111dc565b9250611243602085016111dc565b929592945050506040919091013590565b5f60208284031215611264575f5ffd5b610697826111dc565b5f5f6040838503121561127e575f5ffd5b611287836111dc565b91506020830135801515811461129b575f5ffd5b809150509250929050565b634e487b7160e01b5f52604160045260245ffd5b5f5f5f5f608085870312156112cd575f5ffd5b6112d6856111dc565b93506112e4602086016111dc565b925060408501359150606085013567ffffffffffffffff811115611306575f5ffd5b8501601f81018713611316575f5ffd5b803567ffffffffffffffff811115611330576113306112a6565b604051601f8201601f19908116603f0116810167ffffffffffffffff8111828210171561135f5761135f6112a6565b604052818152828201602001891015611376575f5ffd5b816020840160208301375f6020838301015280935050505092959194509250565b5f5f604083850312156113a8575f5ffd5b6113b1836111dc565b91506113bf602084016111dc565b90509250929050565b600181811c908216806113dc57607f821691505b6020821081036113fa57634e487b7160e01b5f52602260045260245ffd5b50919050565b634e487b7160e01b5f52601160045260245ffd5b5f6001820161142557611425611400565b5060010190565b634e487b7160e01b5f52603260045260245ffd5b5f81518060208401855e5f93019283525090919050565b5f6107b16114658386611440565b84611440565b6001600160a01b03858116825284166020820152604081018390526080606082018190525f9061149d90830184611185565b9695505050505050565b5f602082840312156114b7575f5ffd5b815161069781611155565b818103818111156102f8576102f8611400565b634e487b7160e01b5f52603160045260245ffdfea264697066735822122031f6e39ddfa88893a7ebc565c9509598b13ff4a01da8cda476426e944cd0addd64736f6c634300081c0033",
  "linkReferences": {},
  "deployedLinkReferences": {}
}